{
  "_format": "hh-sol-artifact-1",
  "contractName": "Auction",
  "sourceName": "contracts/Auction.sol",
  "abi": [
    {
      "inputs": [
        {
          "internalType": "address",
          "name": "_nftAddress",
          "type": "address"
        },
        {
          "internalType": "address",
          "name": "_aucAddress",
          "type": "address"
        },
        {
          "internalType": "address",
          "name": "_auctioneer",
          "type": "address"
        },
        {
          "internalType": "uint256",
          "name": "_tokenId",
          "type": "uint256"
        },
        {
          "internalType": "uint256",
          "name": "_startingPrice",
          "type": "uint256"
        },
        {
          "internalType": "uint256",
          "name": "_duration",
          "type": "uint256"
        },
        {
          "internalType": "address",
          "name": "_admin",
          "type": "address"
        },
        {
          "internalType": "uint256",
          "name": "_adminFeePercent",
          "type": "uint256"
        },
        {
          "internalType": "address",
          "name": "_factoryAddress",
          "type": "address"
        }
      ],
      "stateMutability": "nonpayable",
      "type": "constructor"
    },
    {
      "anonymous": false,
      "inputs": [
        {
          "indexed": true,
          "internalType": "address",
          "name": "winner",
          "type": "address"
        },
        {
          "indexed": false,
          "internalType": "uint256",
          "name": "amount",
          "type": "uint256"
        }
      ],
      "name": "AuctionEnded",
      "type": "event"
    },
    {
      "anonymous": false,
      "inputs": [
        {
          "indexed": true,
          "internalType": "address",
          "name": "bidder",
          "type": "address"
        },
        {
          "indexed": false,
          "internalType": "uint256",
          "name": "amount",
          "type": "uint256"
        }
      ],
      "name": "BidPlaced",
      "type": "event"
    },
    {
      "anonymous": false,
      "inputs": [
        {
          "indexed": false,
          "internalType": "uint256",
          "name": "newStartingPrice",
          "type": "uint256"
        }
      ],
      "name": "StartingPriceLowered",
      "type": "event"
    },
    {
      "inputs": [],
      "name": "admin",
      "outputs": [
        {
          "internalType": "address",
          "name": "",
          "type": "address"
        }
      ],
      "stateMutability": "view",
      "type": "function"
    },
    {
      "inputs": [],
      "name": "adminFeePercent",
      "outputs": [
        {
          "internalType": "uint256",
          "name": "",
          "type": "uint256"
        }
      ],
      "stateMutability": "view",
      "type": "function"
    },
    {
      "inputs": [],
      "name": "aucToken",
      "outputs": [
        {
          "internalType": "contract AUC",
          "name": "",
          "type": "address"
        }
      ],
      "stateMutability": "view",
      "type": "function"
    },
    {
      "inputs": [],
      "name": "auctioneer",
      "outputs": [
        {
          "internalType": "address",
          "name": "",
          "type": "address"
        }
      ],
      "stateMutability": "view",
      "type": "function"
    },
    {
      "inputs": [],
      "name": "bidPlaced",
      "outputs": [
        {
          "internalType": "bool",
          "name": "",
          "type": "bool"
        }
      ],
      "stateMutability": "view",
      "type": "function"
    },
    {
      "inputs": [],
      "name": "cancelAuction",
      "outputs": [],
      "stateMutability": "nonpayable",
      "type": "function"
    },
    {
      "inputs": [],
      "name": "claimNFT",
      "outputs": [],
      "stateMutability": "nonpayable",
      "type": "function"
    },
    {
      "inputs": [],
      "name": "endAuction",
      "outputs": [],
      "stateMutability": "nonpayable",
      "type": "function"
    },
    {
      "inputs": [],
      "name": "endTime",
      "outputs": [
        {
          "internalType": "uint256",
          "name": "",
          "type": "uint256"
        }
      ],
      "stateMutability": "view",
      "type": "function"
    },
    {
      "inputs": [],
      "name": "ended",
      "outputs": [
        {
          "internalType": "bool",
          "name": "",
          "type": "bool"
        }
      ],
      "stateMutability": "view",
      "type": "function"
    },
    {
      "inputs": [],
      "name": "factoryAddress",
      "outputs": [
        {
          "internalType": "address",
          "name": "",
          "type": "address"
        }
      ],
      "stateMutability": "view",
      "type": "function"
    },
    {
      "inputs": [],
      "name": "highestBid",
      "outputs": [
        {
          "internalType": "uint256",
          "name": "",
          "type": "uint256"
        }
      ],
      "stateMutability": "view",
      "type": "function"
    },
    {
      "inputs": [],
      "name": "highestBidder",
      "outputs": [
        {
          "internalType": "address",
          "name": "",
          "type": "address"
        }
      ],
      "stateMutability": "view",
      "type": "function"
    },
    {
      "inputs": [
        {
          "internalType": "uint256",
          "name": "newStartingPrice",
          "type": "uint256"
        }
      ],
      "name": "lowerStartingPrice",
      "outputs": [],
      "stateMutability": "nonpayable",
      "type": "function"
    },
    {
      "inputs": [],
      "name": "nft",
      "outputs": [
        {
          "internalType": "contract IERC721",
          "name": "",
          "type": "address"
        }
      ],
      "stateMutability": "view",
      "type": "function"
    },
    {
      "inputs": [
        {
          "internalType": "uint256",
          "name": "bidAmount",
          "type": "uint256"
        }
      ],
      "name": "placeBid",
      "outputs": [],
      "stateMutability": "nonpayable",
      "type": "function"
    },
    {
      "inputs": [],
      "name": "startingPrice",
      "outputs": [
        {
          "internalType": "uint256",
          "name": "",
          "type": "uint256"
        }
      ],
      "stateMutability": "view",
      "type": "function"
    },
    {
      "inputs": [],
      "name": "tokenId",
      "outputs": [
        {
          "internalType": "uint256",
          "name": "",
          "type": "uint256"
        }
      ],
      "stateMutability": "view",
      "type": "function"
    },
    {
      "inputs": [],
      "name": "withdraw",
      "outputs": [],
      "stateMutability": "nonpayable",
      "type": "function"
    }
  ],
  "bytecode": "0x60806040523480156200001157600080fd5b50604051620025cf380380620025cf8339818101604052810190620000379190620002ac565b886000806101000a81548173ffffffffffffffffffffffffffffffffffffffff021916908373ffffffffffffffffffffffffffffffffffffffff160217905550600073ffffffffffffffffffffffffffffffffffffffff168873ffffffffffffffffffffffffffffffffffffffff1614620000b35787620000c9565b73b3828af7f16edbeeef43b5403871a5d979efa5215b975087600160006101000a81548173ffffffffffffffffffffffffffffffffffffffff021916908373ffffffffffffffffffffffffffffffffffffffff16021790555085600281905550846005819055508342620001289190620003ba565b60048190555086600360006101000a81548173ffffffffffffffffffffffffffffffffffffffff021916908373ffffffffffffffffffffffffffffffffffffffff16021790555082600860006101000a81548173ffffffffffffffffffffffffffffffffffffffff021916908373ffffffffffffffffffffffffffffffffffffffff1602179055508160098190555080600a60006101000a81548173ffffffffffffffffffffffffffffffffffffffff021916908373ffffffffffffffffffffffffffffffffffffffff160217905550505050505050505050620003f5565b600080fd5b600073ffffffffffffffffffffffffffffffffffffffff82169050919050565b600062000239826200020c565b9050919050565b6200024b816200022c565b81146200025757600080fd5b50565b6000815190506200026b8162000240565b92915050565b6000819050919050565b620002868162000271565b81146200029257600080fd5b50565b600081519050620002a6816200027b565b92915050565b60008060008060008060008060006101208a8c031215620002d257620002d162000207565b5b6000620002e28c828d016200025a565b9950506020620002f58c828d016200025a565b9850506040620003088c828d016200025a565b97505060606200031b8c828d0162000295565b96505060806200032e8c828d0162000295565b95505060a0620003418c828d0162000295565b94505060c0620003548c828d016200025a565b93505060e0620003678c828d0162000295565b9250506101006200037b8c828d016200025a565b9150509295985092959850929598565b7f4e487b7100000000000000000000000000000000000000000000000000000000600052601160045260246000fd5b6000620003c78262000271565b9150620003d48362000271565b9250828201905080821115620003ef57620003ee6200038b565b5b92915050565b6121ca80620004056000396000f3fe608060405234801561001057600080fd5b50600436106101215760003560e01c80638fa8b790116100ad578063d1a261c911610071578063d1a261c91461028a578063d57bde79146102a8578063d6fbf202146102c6578063f851a440146102e4578063fe67a54b1461030257610121565b80638fa8b7901461020a57806391f9015714610214578063966dae0e146102325780639979ef4514610250578063c303c65e1461026c57610121565b806347ccca02116100f457806347ccca021461018a5780634a4b5c26146101a85780635ec2c7bf146101c4578063672756ad146101e25780638c7fb793146101ec57610121565b806312fa6feb1461012657806317d70f7c146101445780633197cbb6146101625780633ccfd60b14610180575b600080fd5b61012e61030c565b60405161013b919061187b565b60405180910390f35b61014c61031f565b60405161015991906118af565b60405180910390f35b61016a610325565b60405161017791906118af565b60405180910390f35b61018861032b565b005b6101926104f6565b60405161019f9190611949565b60405180910390f35b6101c260048036038101906101bd9190611995565b61051a565b005b6101cc610713565b6040516101d991906119e3565b60405180910390f35b6101ea610739565b005b6101f4610add565b60405161020191906118af565b60405180910390f35b610212610ae3565b005b61021c610ea5565b60405161022991906119e3565b60405180910390f35b61023a610ecb565b60405161024791906119e3565b60405180910390f35b61026a60048036038101906102659190611995565b610ef1565b005b610274611315565b6040516102819190611a1f565b60405180910390f35b61029261133b565b60405161029f919061187b565b60405180910390f35b6102b061134e565b6040516102bd91906118af565b60405180910390f35b6102ce611354565b6040516102db91906118af565b60405180910390f35b6102ec61135a565b6040516102f991906119e3565b60405180910390f35b61030a611380565b005b600a60149054906101000a900460ff1681565b60025481565b60045481565b600a60149054906101000a900460ff1661037a576040517f08c379a000000000000000000000000000000000000000000000000000000000815260040161037190611a97565b60405180910390fd5b600a60159054906101000a900460ff16156104f4576000600160009054906101000a900473ffffffffffffffffffffffffffffffffffffffff1673ffffffffffffffffffffffffffffffffffffffff166370a08231306040518263ffffffff1660e01b81526004016103ec91906119e3565b602060405180830381865afa158015610409573d6000803e3d6000fd5b505050506040513d601f19601f8201168201806040525081019061042d9190611acc565b9050600160009054906101000a900473ffffffffffffffffffffffffffffffffffffffff1673ffffffffffffffffffffffffffffffffffffffff1663a9059cbb600860009054906101000a900473ffffffffffffffffffffffffffffffffffffffff16836040518363ffffffff1660e01b81526004016104ae929190611af9565b6020604051808303816000875af11580156104cd573d6000803e3d6000fd5b505050506040513d601f19601f820116820180604052508101906104f19190611b4e565b50505b565b60008054906101000a900473ffffffffffffffffffffffffffffffffffffffff1681565b600360009054906101000a900473ffffffffffffffffffffffffffffffffffffffff1673ffffffffffffffffffffffffffffffffffffffff163373ffffffffffffffffffffffffffffffffffffffff16146105aa576040517f08c379a00000000000000000000000000000000000000000000000000000000081526004016105a190611bed565b60405180910390fd5b600a60149054906101000a900460ff16156105fa576040517f08c379a00000000000000000000000000000000000000000000000000000000081526004016105f190611c59565b60405180910390fd5b600454421061063e576040517f08c379a000000000000000000000000000000000000000000000000000000000815260040161063590611cc5565b60405180910390fd5b600a60159054906101000a900460ff161561068e576040517f08c379a000000000000000000000000000000000000000000000000000000000815260040161068590611d31565b60405180910390fd5b60055481106106d2576040517f08c379a00000000000000000000000000000000000000000000000000000000081526004016106c990611d9d565b60405180910390fd5b806005819055507f911a54033311b611572efd688f0d2257db35d113636d6802858c881c78ab26448160405161070891906118af565b60405180910390a150565b600360009054906101000a900473ffffffffffffffffffffffffffffffffffffffff1681565b600454421161077d576040517f08c379a000000000000000000000000000000000000000000000000000000000815260040161077490611e09565b60405180910390fd5b600a60159054906101000a900460ff166107cc576040517f08c379a00000000000000000000000000000000000000000000000000000000081526004016107c390611e75565b60405180910390fd5b600a60149054906101000a900460ff161561081c576040517f08c379a000000000000000000000000000000000000000000000000000000000815260040161081390611c59565b60405180910390fd5b6001600a60146101000a81548160ff02191690831515021790555060008054906101000a900473ffffffffffffffffffffffffffffffffffffffff1673ffffffffffffffffffffffffffffffffffffffff166323b872dd30600660009054906101000a900473ffffffffffffffffffffffffffffffffffffffff166002546040518463ffffffff1660e01b81526004016108b893929190611e95565b600060405180830381600087803b1580156108d257600080fd5b505af11580156108e6573d6000803e3d6000fd5b5050505060006103e86009546007546108ff9190611efb565b6109099190611f6c565b9050600160009054906101000a900473ffffffffffffffffffffffffffffffffffffffff1673ffffffffffffffffffffffffffffffffffffffff1663a9059cbb600360009054906101000a900473ffffffffffffffffffffffffffffffffffffffff168360075461097a9190611f9d565b6040518363ffffffff1660e01b8152600401610997929190611af9565b6020604051808303816000875af11580156109b6573d6000803e3d6000fd5b505050506040513d601f19601f820116820180604052508101906109da9190611b4e565b50600660009054906101000a900473ffffffffffffffffffffffffffffffffffffffff1673ffffffffffffffffffffffffffffffffffffffff167fdaec4582d5d9595688c8c98545fdd1c696d41c6aeaeb636737e84ed2f5c00eda600754604051610a4591906118af565b60405180910390a250600a60009054906101000a900473ffffffffffffffffffffffffffffffffffffffff1673ffffffffffffffffffffffffffffffffffffffff1663eca99972306040518263ffffffff1660e01b8152600401610aa991906119e3565b600060405180830381600087803b158015610ac357600080fd5b505af1158015610ad7573d6000803e3d6000fd5b50505050565b60095481565b600360009054906101000a900473ffffffffffffffffffffffffffffffffffffffff1673ffffffffffffffffffffffffffffffffffffffff163373ffffffffffffffffffffffffffffffffffffffff1614610b73576040517f08c379a0000000000000000000000000000000000000000000000000000000008152600401610b6a90611bed565b60405180910390fd5b600a60149054906101000a900460ff1615610bc3576040517f08c379a0000000000000000000000000000000000000000000000000000000008152600401610bba90611c59565b60405180910390fd5b6004544210610c07576040517f08c379a0000000000000000000000000000000000000000000000000000000008152600401610bfe90611cc5565b60405180910390fd5b6001600a60146101000a81548160ff02191690831515021790555060008054906101000a900473ffffffffffffffffffffffffffffffffffffffff1673ffffffffffffffffffffffffffffffffffffffff166323b872dd30600360009054906101000a900473ffffffffffffffffffffffffffffffffffffffff166002546040518463ffffffff1660e01b8152600401610ca393929190611e95565b600060405180830381600087803b158015610cbd57600080fd5b505af1158015610cd1573d6000803e3d6000fd5b50505050600060075414610da557600160009054906101000a900473ffffffffffffffffffffffffffffffffffffffff1673ffffffffffffffffffffffffffffffffffffffff1663a9059cbb600660009054906101000a900473ffffffffffffffffffffffffffffffffffffffff166007546040518363ffffffff1660e01b8152600401610d60929190611af9565b6020604051808303816000875af1158015610d7f573d6000803e3d6000fd5b505050506040513d601f19601f82011682018060405250810190610da39190611b4e565b505b600360009054906101000a900473ffffffffffffffffffffffffffffffffffffffff1673ffffffffffffffffffffffffffffffffffffffff167fdaec4582d5d9595688c8c98545fdd1c696d41c6aeaeb636737e84ed2f5c00eda6000604051610e0e919061200c565b60405180910390a2600a60009054906101000a900473ffffffffffffffffffffffffffffffffffffffff1673ffffffffffffffffffffffffffffffffffffffff1663eca99972306040518263ffffffff1660e01b8152600401610e7191906119e3565b600060405180830381600087803b158015610e8b57600080fd5b505af1158015610e9f573d6000803e3d6000fd5b50505050565b600660009054906101000a900473ffffffffffffffffffffffffffffffffffffffff1681565b600a60009054906101000a900473ffffffffffffffffffffffffffffffffffffffff1681565b600a60149054906101000a900460ff1615610f41576040517f08c379a0000000000000000000000000000000000000000000000000000000008152600401610f3890611c59565b60405180910390fd5b6004544210610f85576040517f08c379a0000000000000000000000000000000000000000000000000000000008152600401610f7c90611cc5565b60405180910390fd5b6007548111610fc9576040517f08c379a0000000000000000000000000000000000000000000000000000000008152600401610fc090612073565b60405180910390fd5b80600160009054906101000a900473ffffffffffffffffffffffffffffffffffffffff1673ffffffffffffffffffffffffffffffffffffffff1663dd62ed3e33306040518363ffffffff1660e01b8152600401611027929190612093565b602060405180830381865afa158015611044573d6000803e3d6000fd5b505050506040513d601f19601f820116820180604052508101906110689190611acc565b10156110a9576040517f08c379a00000000000000000000000000000000000000000000000000000000081526004016110a090612108565b60405180910390fd5b6005548110156110ee576040517f08c379a00000000000000000000000000000000000000000000000000000000081526004016110e590612174565b60405180910390fd5b6000600754146111be57600160009054906101000a900473ffffffffffffffffffffffffffffffffffffffff1673ffffffffffffffffffffffffffffffffffffffff1663a9059cbb600660009054906101000a900473ffffffffffffffffffffffffffffffffffffffff166007546040518363ffffffff1660e01b8152600401611179929190611af9565b6020604051808303816000875af1158015611198573d6000803e3d6000fd5b505050506040513d601f19601f820116820180604052508101906111bc9190611b4e565b505b600160009054906101000a900473ffffffffffffffffffffffffffffffffffffffff1673ffffffffffffffffffffffffffffffffffffffff166323b872dd3330846040518463ffffffff1660e01b815260040161121d93929190611e95565b6020604051808303816000875af115801561123c573d6000803e3d6000fd5b505050506040513d601f19601f820116820180604052508101906112609190611b4e565b508060078190555033600660006101000a81548173ffffffffffffffffffffffffffffffffffffffff021916908373ffffffffffffffffffffffffffffffffffffffff1602179055506001600a60156101000a81548160ff0219169083151502179055503373ffffffffffffffffffffffffffffffffffffffff167f3fabff0a9c3ecd6814702e247fa9733e5d0aa69e3a38590f92cb18f623a2254d8260405161130a91906118af565b60405180910390a250565b600160009054906101000a900473ffffffffffffffffffffffffffffffffffffffff1681565b600a60159054906101000a900460ff1681565b60075481565b60055481565b600860009054906101000a900473ffffffffffffffffffffffffffffffffffffffff1681565b600360009054906101000a900473ffffffffffffffffffffffffffffffffffffffff1673ffffffffffffffffffffffffffffffffffffffff163373ffffffffffffffffffffffffffffffffffffffff1614611410576040517f08c379a000000000000000000000000000000000000000000000000000000000815260040161140790611bed565b60405180910390fd5b600a60149054906101000a900460ff1615611460576040517f08c379a000000000000000000000000000000000000000000000000000000000815260040161145790611c59565b60405180910390fd5b6001600a60146101000a81548160ff021916908315150217905550600a60159054906101000a900460ff16156116ac5760008054906101000a900473ffffffffffffffffffffffffffffffffffffffff1673ffffffffffffffffffffffffffffffffffffffff166323b872dd30600660009054906101000a900473ffffffffffffffffffffffffffffffffffffffff166002546040518463ffffffff1660e01b815260040161151193929190611e95565b600060405180830381600087803b15801561152b57600080fd5b505af115801561153f573d6000803e3d6000fd5b5050505060006103e86009546007546115589190611efb565b6115629190611f6c565b9050600160009054906101000a900473ffffffffffffffffffffffffffffffffffffffff1673ffffffffffffffffffffffffffffffffffffffff1663a9059cbb600360009054906101000a900473ffffffffffffffffffffffffffffffffffffffff16836007546115d39190611f9d565b6040518363ffffffff1660e01b81526004016115f0929190611af9565b6020604051808303816000875af115801561160f573d6000803e3d6000fd5b505050506040513d601f19601f820116820180604052508101906116339190611b4e565b50600660009054906101000a900473ffffffffffffffffffffffffffffffffffffffff1673ffffffffffffffffffffffffffffffffffffffff167fdaec4582d5d9595688c8c98545fdd1c696d41c6aeaeb636737e84ed2f5c00eda60075460405161169e91906118af565b60405180910390a2506117d1565b60008054906101000a900473ffffffffffffffffffffffffffffffffffffffff1673ffffffffffffffffffffffffffffffffffffffff166323b872dd30600360009054906101000a900473ffffffffffffffffffffffffffffffffffffffff166002546040518463ffffffff1660e01b815260040161172d93929190611e95565b600060405180830381600087803b15801561174757600080fd5b505af115801561175b573d6000803e3d6000fd5b50505050600360009054906101000a900473ffffffffffffffffffffffffffffffffffffffff1673ffffffffffffffffffffffffffffffffffffffff167fdaec4582d5d9595688c8c98545fdd1c696d41c6aeaeb636737e84ed2f5c00eda60006040516117c8919061200c565b60405180910390a25b600a60009054906101000a900473ffffffffffffffffffffffffffffffffffffffff1673ffffffffffffffffffffffffffffffffffffffff1663eca99972306040518263ffffffff1660e01b815260040161182c91906119e3565b600060405180830381600087803b15801561184657600080fd5b505af115801561185a573d6000803e3d6000fd5b50505050565b60008115159050919050565b61187581611860565b82525050565b6000602082019050611890600083018461186c565b92915050565b6000819050919050565b6118a981611896565b82525050565b60006020820190506118c460008301846118a0565b92915050565b600073ffffffffffffffffffffffffffffffffffffffff82169050919050565b6000819050919050565b600061190f61190a611905846118ca565b6118ea565b6118ca565b9050919050565b6000611921826118f4565b9050919050565b600061193382611916565b9050919050565b61194381611928565b82525050565b600060208201905061195e600083018461193a565b92915050565b600080fd5b61197281611896565b811461197d57600080fd5b50565b60008135905061198f81611969565b92915050565b6000602082840312156119ab576119aa611964565b5b60006119b984828501611980565b91505092915050565b60006119cd826118ca565b9050919050565b6119dd816119c2565b82525050565b60006020820190506119f860008301846119d4565b92915050565b6000611a0982611916565b9050919050565b611a19816119fe565b82525050565b6000602082019050611a346000830184611a10565b92915050565b600082825260208201905092915050565b7f41756374696f6e206e6f74207965742073657420746f20656e6465642e000000600082015250565b6000611a81601d83611a3a565b9150611a8c82611a4b565b602082019050919050565b60006020820190508181036000830152611ab081611a74565b9050919050565b600081519050611ac681611969565b92915050565b600060208284031215611ae257611ae1611964565b5b6000611af084828501611ab7565b91505092915050565b6000604082019050611b0e60008301856119d4565b611b1b60208301846118a0565b9392505050565b611b2b81611860565b8114611b3657600080fd5b50565b600081519050611b4881611b22565b92915050565b600060208284031215611b6457611b63611964565b5b6000611b7284828501611b39565b91505092915050565b7f4f6e6c792061756374696f6e6565722063616e2063616c6c207468697320667560008201527f6e6374696f6e2e00000000000000000000000000000000000000000000000000602082015250565b6000611bd7602783611a3a565b9150611be282611b7b565b604082019050919050565b60006020820190508181036000830152611c0681611bca565b9050919050565b7f41756374696f6e20616c726561647920656e6465642e00000000000000000000600082015250565b6000611c43601683611a3a565b9150611c4e82611c0d565b602082019050919050565b60006020820190508181036000830152611c7281611c36565b9050919050565b7f41756374696f6e20616c726561647920657870697265642e0000000000000000600082015250565b6000611caf601883611a3a565b9150611cba82611c79565b602082019050919050565b60006020820190508181036000830152611cde81611ca2565b9050919050565b7f42696420616c726561647920706c616365642e00000000000000000000000000600082015250565b6000611d1b601383611a3a565b9150611d2682611ce5565b602082019050919050565b60006020820190508181036000830152611d4a81611d0e565b9050919050565b7f4e6577207072696365206d757374206265206c6f776572000000000000000000600082015250565b6000611d87601783611a3a565b9150611d9282611d51565b602082019050919050565b60006020820190508181036000830152611db681611d7a565b9050919050565b7f41756374696f6e207374696c6c206f6e676f696e672e00000000000000000000600082015250565b6000611df3601683611a3a565b9150611dfe82611dbd565b602082019050919050565b60006020820190508181036000830152611e2281611de6565b9050919050565b7f426964206e6f742079657420706c616365642e00000000000000000000000000600082015250565b6000611e5f601383611a3a565b9150611e6a82611e29565b602082019050919050565b60006020820190508181036000830152611e8e81611e52565b9050919050565b6000606082019050611eaa60008301866119d4565b611eb760208301856119d4565b611ec460408301846118a0565b949350505050565b7f4e487b7100000000000000000000000000000000000000000000000000000000600052601160045260246000fd5b6000611f0682611896565b9150611f1183611896565b9250828202611f1f81611896565b91508282048414831517611f3657611f35611ecc565b5b5092915050565b7f4e487b7100000000000000000000000000000000000000000000000000000000600052601260045260246000fd5b6000611f7782611896565b9150611f8283611896565b925082611f9257611f91611f3d565b5b828204905092915050565b6000611fa882611896565b9150611fb383611896565b9250828203905081811115611fcb57611fca611ecc565b5b92915050565b6000819050919050565b6000611ff6611ff1611fec84611fd1565b6118ea565b611896565b9050919050565b61200681611fdb565b82525050565b60006020820190506120216000830184611ffd565b92915050565b7f546865726520616c726561647920697320612068696768657220626964000000600082015250565b600061205d601d83611a3a565b915061206882612027565b602082019050919050565b6000602082019050818103600083015261208c81612050565b9050919050565b60006040820190506120a860008301856119d4565b6120b560208301846119d4565b9392505050565b7f496e73756666696369656e7420616c6c6f77616e636500000000000000000000600082015250565b60006120f2601683611a3a565b91506120fd826120bc565b602082019050919050565b60006020820190508181036000830152612121816120e5565b9050919050565b7f42696420616d6f756e7420746f6f206c6f770000000000000000000000000000600082015250565b600061215e601283611a3a565b915061216982612128565b602082019050919050565b6000602082019050818103600083015261218d81612151565b905091905056fea26469706673582212205b1dd2a91a3de8b4f89e3834334922342ce5abcd1ba471b0a58609324ffcf8dd64736f6c63430008140033",
  "linkReferences": {},
  "deployedLinkReferences": {}
}