{
  "_format": "hh-sol-artifact-1",
  "contractName": "Auction",
  "sourceName": "contracts/Auction.sol",
  "abi": [
    {
      "inputs": [
        {
          "internalType": "address",
          "name": "_nftAddress",
          "type": "address"
        },
        {
          "internalType": "address",
          "name": "_aucAddress",
          "type": "address"
        },
        {
          "internalType": "uint256",
          "name": "_tokenId",
          "type": "uint256"
        },
        {
          "internalType": "uint256",
          "name": "_startingPrice",
          "type": "uint256"
        },
        {
          "internalType": "uint256",
          "name": "_duration",
          "type": "uint256"
        },
        {
          "internalType": "address",
          "name": "_admin",
          "type": "address"
        },
        {
          "internalType": "uint256",
          "name": "_adminFeePercent",
          "type": "uint256"
        }
      ],
      "stateMutability": "nonpayable",
      "type": "constructor"
    },
    {
      "anonymous": false,
      "inputs": [
        {
          "indexed": true,
          "internalType": "address",
          "name": "winner",
          "type": "address"
        },
        {
          "indexed": false,
          "internalType": "uint256",
          "name": "amount",
          "type": "uint256"
        }
      ],
      "name": "AuctionEnded",
      "type": "event"
    },
    {
      "anonymous": false,
      "inputs": [
        {
          "indexed": true,
          "internalType": "address",
          "name": "bidder",
          "type": "address"
        },
        {
          "indexed": false,
          "internalType": "uint256",
          "name": "amount",
          "type": "uint256"
        }
      ],
      "name": "BidPlaced",
      "type": "event"
    },
    {
      "anonymous": false,
      "inputs": [
        {
          "indexed": false,
          "internalType": "uint256",
          "name": "newStartingPrice",
          "type": "uint256"
        }
      ],
      "name": "StartingPriceLowered",
      "type": "event"
    },
    {
      "inputs": [],
      "name": "admin",
      "outputs": [
        {
          "internalType": "address",
          "name": "",
          "type": "address"
        }
      ],
      "stateMutability": "view",
      "type": "function"
    },
    {
      "inputs": [],
      "name": "adminFeePercent",
      "outputs": [
        {
          "internalType": "uint256",
          "name": "",
          "type": "uint256"
        }
      ],
      "stateMutability": "view",
      "type": "function"
    },
    {
      "inputs": [],
      "name": "aucToken",
      "outputs": [
        {
          "internalType": "contract AUC",
          "name": "",
          "type": "address"
        }
      ],
      "stateMutability": "view",
      "type": "function"
    },
    {
      "inputs": [],
      "name": "auctioneer",
      "outputs": [
        {
          "internalType": "address",
          "name": "",
          "type": "address"
        }
      ],
      "stateMutability": "view",
      "type": "function"
    },
    {
      "inputs": [],
      "name": "bidPlaced",
      "outputs": [
        {
          "internalType": "bool",
          "name": "",
          "type": "bool"
        }
      ],
      "stateMutability": "view",
      "type": "function"
    },
    {
      "inputs": [],
      "name": "cancelAuction",
      "outputs": [],
      "stateMutability": "nonpayable",
      "type": "function"
    },
    {
      "inputs": [],
      "name": "claimNFT",
      "outputs": [],
      "stateMutability": "nonpayable",
      "type": "function"
    },
    {
      "inputs": [],
      "name": "endAuction",
      "outputs": [],
      "stateMutability": "nonpayable",
      "type": "function"
    },
    {
      "inputs": [],
      "name": "endTime",
      "outputs": [
        {
          "internalType": "uint256",
          "name": "",
          "type": "uint256"
        }
      ],
      "stateMutability": "view",
      "type": "function"
    },
    {
      "inputs": [],
      "name": "ended",
      "outputs": [
        {
          "internalType": "bool",
          "name": "",
          "type": "bool"
        }
      ],
      "stateMutability": "view",
      "type": "function"
    },
    {
      "inputs": [],
      "name": "highestBid",
      "outputs": [
        {
          "internalType": "uint256",
          "name": "",
          "type": "uint256"
        }
      ],
      "stateMutability": "view",
      "type": "function"
    },
    {
      "inputs": [],
      "name": "highestBidder",
      "outputs": [
        {
          "internalType": "address",
          "name": "",
          "type": "address"
        }
      ],
      "stateMutability": "view",
      "type": "function"
    },
    {
      "inputs": [
        {
          "internalType": "uint256",
          "name": "newStartingPrice",
          "type": "uint256"
        }
      ],
      "name": "lowerStartingPrice",
      "outputs": [],
      "stateMutability": "nonpayable",
      "type": "function"
    },
    {
      "inputs": [],
      "name": "nft",
      "outputs": [
        {
          "internalType": "contract IERC721",
          "name": "",
          "type": "address"
        }
      ],
      "stateMutability": "view",
      "type": "function"
    },
    {
      "inputs": [
        {
          "internalType": "uint256",
          "name": "bidAmount",
          "type": "uint256"
        }
      ],
      "name": "placeBid",
      "outputs": [],
      "stateMutability": "nonpayable",
      "type": "function"
    },
    {
      "inputs": [],
      "name": "startingPrice",
      "outputs": [
        {
          "internalType": "uint256",
          "name": "",
          "type": "uint256"
        }
      ],
      "stateMutability": "view",
      "type": "function"
    },
    {
      "inputs": [],
      "name": "tokenId",
      "outputs": [
        {
          "internalType": "uint256",
          "name": "",
          "type": "uint256"
        }
      ],
      "stateMutability": "view",
      "type": "function"
    },
    {
      "inputs": [],
      "name": "withdraw",
      "outputs": [],
      "stateMutability": "nonpayable",
      "type": "function"
    }
  ],
  "bytecode": "0x60806040523480156200001157600080fd5b506040516200227d3803806200227d833981810160405281019062000037919062000269565b866000806101000a81548173ffffffffffffffffffffffffffffffffffffffff021916908373ffffffffffffffffffffffffffffffffffffffff160217905550600073ffffffffffffffffffffffffffffffffffffffff168673ffffffffffffffffffffffffffffffffffffffff1614620000b35785620000c9565b73b3828af7f16edbeeef43b5403871a5d979efa5215b955085600160006101000a81548173ffffffffffffffffffffffffffffffffffffffff021916908373ffffffffffffffffffffffffffffffffffffffff160217905550846002819055508360058190555082426200012891906200034b565b60048190555033600360006101000a81548173ffffffffffffffffffffffffffffffffffffffff021916908373ffffffffffffffffffffffffffffffffffffffff16021790555081600860006101000a81548173ffffffffffffffffffffffffffffffffffffffff021916908373ffffffffffffffffffffffffffffffffffffffff160217905550806009819055505050505050505062000386565b600080fd5b600073ffffffffffffffffffffffffffffffffffffffff82169050919050565b6000620001f682620001c9565b9050919050565b6200020881620001e9565b81146200021457600080fd5b50565b6000815190506200022881620001fd565b92915050565b6000819050919050565b62000243816200022e565b81146200024f57600080fd5b50565b600081519050620002638162000238565b92915050565b600080600080600080600060e0888a0312156200028b576200028a620001c4565b5b60006200029b8a828b0162000217565b9750506020620002ae8a828b0162000217565b9650506040620002c18a828b0162000252565b9550506060620002d48a828b0162000252565b9450506080620002e78a828b0162000252565b93505060a0620002fa8a828b0162000217565b92505060c06200030d8a828b0162000252565b91505092959891949750929550565b7f4e487b7100000000000000000000000000000000000000000000000000000000600052601160045260246000fd5b600062000358826200022e565b915062000365836200022e565b925082820190508082111562000380576200037f6200031c565b5b92915050565b611ee780620003966000396000f3fe608060405234801561001057600080fd5b50600436106101165760003560e01c80638fa8b790116100a2578063d1a261c911610071578063d1a261c914610261578063d57bde791461027f578063d6fbf2021461029d578063f851a440146102bb578063fe67a54b146102d957610116565b80638fa8b790146101ff57806391f90157146102095780639979ef4514610227578063c303c65e1461024357610116565b806347ccca02116100e957806347ccca021461017f5780634a4b5c261461019d5780635ec2c7bf146101b9578063672756ad146101d75780638c7fb793146101e157610116565b806312fa6feb1461011b57806317d70f7c146101395780633197cbb6146101575780633ccfd60b14610175575b600080fd5b6101236102e3565b6040516101309190611607565b60405180910390f35b6101416102f6565b60405161014e919061163b565b60405180910390f35b61015f6102fc565b60405161016c919061163b565b60405180910390f35b61017d610302565b005b610187610574565b60405161019491906116d5565b60405180910390f35b6101b760048036038101906101b29190611721565b610598565b005b6101c1610791565b6040516101ce919061176f565b60405180910390f35b6101df6107b7565b005b6101e9610ace565b6040516101f6919061163b565b60405180910390f35b610207610ad4565b005b610211610e09565b60405161021e919061176f565b60405180910390f35b610241600480360381019061023c9190611721565b610e2f565b005b61024b61112e565b60405161025891906117ab565b60405180910390f35b610269611154565b6040516102769190611607565b60405180910390f35b610287611167565b604051610294919061163b565b60405180910390f35b6102a561116d565b6040516102b2919061163b565b60405180910390f35b6102c3611173565b6040516102d0919061176f565b60405180910390f35b6102e1611199565b005b600a60009054906101000a900460ff1681565b60025481565b60045481565b600a60009054906101000a900460ff16610351576040517f08c379a000000000000000000000000000000000000000000000000000000000815260040161034890611823565b60405180910390fd5b600a60019054906101000a900460ff166103a0576040517f08c379a00000000000000000000000000000000000000000000000000000000081526004016103979061188f565b60405180910390fd5b600860009054906101000a900473ffffffffffffffffffffffffffffffffffffffff1673ffffffffffffffffffffffffffffffffffffffff163373ffffffffffffffffffffffffffffffffffffffff1614610430576040517f08c379a000000000000000000000000000000000000000000000000000000000815260040161042790611921565b60405180910390fd5b6000600160009054906101000a900473ffffffffffffffffffffffffffffffffffffffff1673ffffffffffffffffffffffffffffffffffffffff166370a08231306040518263ffffffff1660e01b815260040161048d919061176f565b602060405180830381865afa1580156104aa573d6000803e3d6000fd5b505050506040513d601f19601f820116820180604052508101906104ce9190611956565b9050600160009054906101000a900473ffffffffffffffffffffffffffffffffffffffff1673ffffffffffffffffffffffffffffffffffffffff1663a9059cbb33836040518363ffffffff1660e01b815260040161052d929190611983565b6020604051808303816000875af115801561054c573d6000803e3d6000fd5b505050506040513d601f19601f8201168201806040525081019061057091906119d8565b5050565b60008054906101000a900473ffffffffffffffffffffffffffffffffffffffff1681565b600360009054906101000a900473ffffffffffffffffffffffffffffffffffffffff1673ffffffffffffffffffffffffffffffffffffffff163373ffffffffffffffffffffffffffffffffffffffff1614610628576040517f08c379a000000000000000000000000000000000000000000000000000000000815260040161061f90611a77565b60405180910390fd5b600a60009054906101000a900460ff1615610678576040517f08c379a000000000000000000000000000000000000000000000000000000000815260040161066f90611ae3565b60405180910390fd5b60045442106106bc576040517f08c379a00000000000000000000000000000000000000000000000000000000081526004016106b390611b4f565b60405180910390fd5b600a60019054906101000a900460ff161561070c576040517f08c379a000000000000000000000000000000000000000000000000000000000815260040161070390611bbb565b60405180910390fd5b6005548110610750576040517f08c379a000000000000000000000000000000000000000000000000000000000815260040161074790611c27565b60405180910390fd5b806005819055507f911a54033311b611572efd688f0d2257db35d113636d6802858c881c78ab264481604051610786919061163b565b60405180910390a150565b600360009054906101000a900473ffffffffffffffffffffffffffffffffffffffff1681565b60045442116107fb576040517f08c379a00000000000000000000000000000000000000000000000000000000081526004016107f290611c93565b60405180910390fd5b600a60019054906101000a900460ff1661084a576040517f08c379a00000000000000000000000000000000000000000000000000000000081526004016108419061188f565b60405180910390fd5b600a60009054906101000a900460ff161561089a576040517f08c379a000000000000000000000000000000000000000000000000000000000815260040161089190611ae3565b60405180910390fd5b6001600a60006101000a81548160ff02191690831515021790555060008054906101000a900473ffffffffffffffffffffffffffffffffffffffff1673ffffffffffffffffffffffffffffffffffffffff166323b872dd30600660009054906101000a900473ffffffffffffffffffffffffffffffffffffffff166002546040518463ffffffff1660e01b815260040161093693929190611cb3565b600060405180830381600087803b15801561095057600080fd5b505af1158015610964573d6000803e3d6000fd5b5050505060006103e860095460075461097d9190611d19565b6109879190611d8a565b9050600160009054906101000a900473ffffffffffffffffffffffffffffffffffffffff1673ffffffffffffffffffffffffffffffffffffffff1663a9059cbb600360009054906101000a900473ffffffffffffffffffffffffffffffffffffffff16836007546109f89190611dbb565b6040518363ffffffff1660e01b8152600401610a15929190611983565b6020604051808303816000875af1158015610a34573d6000803e3d6000fd5b505050506040513d601f19601f82011682018060405250810190610a5891906119d8565b50600660009054906101000a900473ffffffffffffffffffffffffffffffffffffffff1673ffffffffffffffffffffffffffffffffffffffff167fdaec4582d5d9595688c8c98545fdd1c696d41c6aeaeb636737e84ed2f5c00eda600754604051610ac3919061163b565b60405180910390a250565b60095481565b600360009054906101000a900473ffffffffffffffffffffffffffffffffffffffff1673ffffffffffffffffffffffffffffffffffffffff163373ffffffffffffffffffffffffffffffffffffffff1614610b64576040517f08c379a0000000000000000000000000000000000000000000000000000000008152600401610b5b90611a77565b60405180910390fd5b600a60009054906101000a900460ff1615610bb4576040517f08c379a0000000000000000000000000000000000000000000000000000000008152600401610bab90611ae3565b60405180910390fd5b6004544210610bf8576040517f08c379a0000000000000000000000000000000000000000000000000000000008152600401610bef90611b4f565b60405180910390fd5b6001600a60006101000a81548160ff02191690831515021790555060008054906101000a900473ffffffffffffffffffffffffffffffffffffffff1673ffffffffffffffffffffffffffffffffffffffff166323b872dd30600360009054906101000a900473ffffffffffffffffffffffffffffffffffffffff166002546040518463ffffffff1660e01b8152600401610c9493929190611cb3565b600060405180830381600087803b158015610cae57600080fd5b505af1158015610cc2573d6000803e3d6000fd5b50505050600060075414610d9657600160009054906101000a900473ffffffffffffffffffffffffffffffffffffffff1673ffffffffffffffffffffffffffffffffffffffff1663a9059cbb600660009054906101000a900473ffffffffffffffffffffffffffffffffffffffff166007546040518363ffffffff1660e01b8152600401610d51929190611983565b6020604051808303816000875af1158015610d70573d6000803e3d6000fd5b505050506040513d601f19601f82011682018060405250810190610d9491906119d8565b505b600360009054906101000a900473ffffffffffffffffffffffffffffffffffffffff1673ffffffffffffffffffffffffffffffffffffffff167fdaec4582d5d9595688c8c98545fdd1c696d41c6aeaeb636737e84ed2f5c00eda6000604051610dff9190611e2a565b60405180910390a2565b600660009054906101000a900473ffffffffffffffffffffffffffffffffffffffff1681565b600a60009054906101000a900460ff1615610e7f576040517f08c379a0000000000000000000000000000000000000000000000000000000008152600401610e7690611ae3565b60405180910390fd5b6004544210610ec3576040517f08c379a0000000000000000000000000000000000000000000000000000000008152600401610eba90611b4f565b60405180910390fd5b6007548111610f07576040517f08c379a0000000000000000000000000000000000000000000000000000000008152600401610efe90611e91565b60405180910390fd5b600060075414610fd757600160009054906101000a900473ffffffffffffffffffffffffffffffffffffffff1673ffffffffffffffffffffffffffffffffffffffff1663a9059cbb600660009054906101000a900473ffffffffffffffffffffffffffffffffffffffff166007546040518363ffffffff1660e01b8152600401610f92929190611983565b6020604051808303816000875af1158015610fb1573d6000803e3d6000fd5b505050506040513d601f19601f82011682018060405250810190610fd591906119d8565b505b600160009054906101000a900473ffffffffffffffffffffffffffffffffffffffff1673ffffffffffffffffffffffffffffffffffffffff166323b872dd3330846040518463ffffffff1660e01b815260040161103693929190611cb3565b6020604051808303816000875af1158015611055573d6000803e3d6000fd5b505050506040513d601f19601f8201168201806040525081019061107991906119d8565b508060078190555033600660006101000a81548173ffffffffffffffffffffffffffffffffffffffff021916908373ffffffffffffffffffffffffffffffffffffffff1602179055506001600a60016101000a81548160ff0219169083151502179055503373ffffffffffffffffffffffffffffffffffffffff167f3fabff0a9c3ecd6814702e247fa9733e5d0aa69e3a38590f92cb18f623a2254d82604051611123919061163b565b60405180910390a250565b600160009054906101000a900473ffffffffffffffffffffffffffffffffffffffff1681565b600a60019054906101000a900460ff1681565b60075481565b60055481565b600860009054906101000a900473ffffffffffffffffffffffffffffffffffffffff1681565b600360009054906101000a900473ffffffffffffffffffffffffffffffffffffffff1673ffffffffffffffffffffffffffffffffffffffff163373ffffffffffffffffffffffffffffffffffffffff1614611229576040517f08c379a000000000000000000000000000000000000000000000000000000000815260040161122090611a77565b60405180910390fd5b600a60009054906101000a900460ff1615611279576040517f08c379a000000000000000000000000000000000000000000000000000000000815260040161127090611ae3565b60405180910390fd5b6001600a60006101000a81548160ff021916908315150217905550600a60019054906101000a900460ff16156114c55760008054906101000a900473ffffffffffffffffffffffffffffffffffffffff1673ffffffffffffffffffffffffffffffffffffffff166323b872dd30600660009054906101000a900473ffffffffffffffffffffffffffffffffffffffff166002546040518463ffffffff1660e01b815260040161132a93929190611cb3565b600060405180830381600087803b15801561134457600080fd5b505af1158015611358573d6000803e3d6000fd5b5050505060006103e86009546007546113719190611d19565b61137b9190611d8a565b9050600160009054906101000a900473ffffffffffffffffffffffffffffffffffffffff1673ffffffffffffffffffffffffffffffffffffffff1663a9059cbb600360009054906101000a900473ffffffffffffffffffffffffffffffffffffffff16836007546113ec9190611dbb565b6040518363ffffffff1660e01b8152600401611409929190611983565b6020604051808303816000875af1158015611428573d6000803e3d6000fd5b505050506040513d601f19601f8201168201806040525081019061144c91906119d8565b50600660009054906101000a900473ffffffffffffffffffffffffffffffffffffffff1673ffffffffffffffffffffffffffffffffffffffff167fdaec4582d5d9595688c8c98545fdd1c696d41c6aeaeb636737e84ed2f5c00eda6007546040516114b7919061163b565b60405180910390a2506115ea565b60008054906101000a900473ffffffffffffffffffffffffffffffffffffffff1673ffffffffffffffffffffffffffffffffffffffff166323b872dd30600360009054906101000a900473ffffffffffffffffffffffffffffffffffffffff166002546040518463ffffffff1660e01b815260040161154693929190611cb3565b600060405180830381600087803b15801561156057600080fd5b505af1158015611574573d6000803e3d6000fd5b50505050600360009054906101000a900473ffffffffffffffffffffffffffffffffffffffff1673ffffffffffffffffffffffffffffffffffffffff167fdaec4582d5d9595688c8c98545fdd1c696d41c6aeaeb636737e84ed2f5c00eda60006040516115e19190611e2a565b60405180910390a25b565b60008115159050919050565b611601816115ec565b82525050565b600060208201905061161c60008301846115f8565b92915050565b6000819050919050565b61163581611622565b82525050565b6000602082019050611650600083018461162c565b92915050565b600073ffffffffffffffffffffffffffffffffffffffff82169050919050565b6000819050919050565b600061169b61169661169184611656565b611676565b611656565b9050919050565b60006116ad82611680565b9050919050565b60006116bf826116a2565b9050919050565b6116cf816116b4565b82525050565b60006020820190506116ea60008301846116c6565b92915050565b600080fd5b6116fe81611622565b811461170957600080fd5b50565b60008135905061171b816116f5565b92915050565b600060208284031215611737576117366116f0565b5b60006117458482850161170c565b91505092915050565b600061175982611656565b9050919050565b6117698161174e565b82525050565b60006020820190506117846000830184611760565b92915050565b6000611795826116a2565b9050919050565b6117a58161178a565b82525050565b60006020820190506117c0600083018461179c565b92915050565b600082825260208201905092915050565b7f41756374696f6e206e6f74207965742073657420746f20656e6465642e000000600082015250565b600061180d601d836117c6565b9150611818826117d7565b602082019050919050565b6000602082019050818103600083015261183c81611800565b9050919050565b7f426964206e6f742079657420706c616365642e00000000000000000000000000600082015250565b60006118796013836117c6565b915061188482611843565b602082019050919050565b600060208201905081810360008301526118a88161186c565b9050919050565b7f4f6e6c792061646d696e2063616e2063616c6c20746869732066756e6374696f60008201527f6e2e000000000000000000000000000000000000000000000000000000000000602082015250565b600061190b6022836117c6565b9150611916826118af565b604082019050919050565b6000602082019050818103600083015261193a816118fe565b9050919050565b600081519050611950816116f5565b92915050565b60006020828403121561196c5761196b6116f0565b5b600061197a84828501611941565b91505092915050565b60006040820190506119986000830185611760565b6119a5602083018461162c565b9392505050565b6119b5816115ec565b81146119c057600080fd5b50565b6000815190506119d2816119ac565b92915050565b6000602082840312156119ee576119ed6116f0565b5b60006119fc848285016119c3565b91505092915050565b7f4f6e6c792061756374696f6e6565722063616e2063616c6c207468697320667560008201527f6e6374696f6e2e00000000000000000000000000000000000000000000000000602082015250565b6000611a616027836117c6565b9150611a6c82611a05565b604082019050919050565b60006020820190508181036000830152611a9081611a54565b9050919050565b7f41756374696f6e20616c726561647920656e6465642e00000000000000000000600082015250565b6000611acd6016836117c6565b9150611ad882611a97565b602082019050919050565b60006020820190508181036000830152611afc81611ac0565b9050919050565b7f41756374696f6e20616c726561647920657870697265642e0000000000000000600082015250565b6000611b396018836117c6565b9150611b4482611b03565b602082019050919050565b60006020820190508181036000830152611b6881611b2c565b9050919050565b7f42696420616c726561647920706c616365642e00000000000000000000000000600082015250565b6000611ba56013836117c6565b9150611bb082611b6f565b602082019050919050565b60006020820190508181036000830152611bd481611b98565b9050919050565b7f4e6577207072696365206d757374206265206c6f776572000000000000000000600082015250565b6000611c116017836117c6565b9150611c1c82611bdb565b602082019050919050565b60006020820190508181036000830152611c4081611c04565b9050919050565b7f41756374696f6e207374696c6c206f6e676f696e672e00000000000000000000600082015250565b6000611c7d6016836117c6565b9150611c8882611c47565b602082019050919050565b60006020820190508181036000830152611cac81611c70565b9050919050565b6000606082019050611cc86000830186611760565b611cd56020830185611760565b611ce2604083018461162c565b949350505050565b7f4e487b7100000000000000000000000000000000000000000000000000000000600052601160045260246000fd5b6000611d2482611622565b9150611d2f83611622565b9250828202611d3d81611622565b91508282048414831517611d5457611d53611cea565b5b5092915050565b7f4e487b7100000000000000000000000000000000000000000000000000000000600052601260045260246000fd5b6000611d9582611622565b9150611da083611622565b925082611db057611daf611d5b565b5b828204905092915050565b6000611dc682611622565b9150611dd183611622565b9250828203905081811115611de957611de8611cea565b5b92915050565b6000819050919050565b6000611e14611e0f611e0a84611def565b611676565b611622565b9050919050565b611e2481611df9565b82525050565b6000602082019050611e3f6000830184611e1b565b92915050565b7f546865726520616c726561647920697320612068696768657220626964000000600082015250565b6000611e7b601d836117c6565b9150611e8682611e45565b602082019050919050565b60006020820190508181036000830152611eaa81611e6e565b905091905056fea2646970667358221220aeff6de9e9336e96e665d35e8438a4f6d84128c7de305c0ed158da81e6fd3c4d64736f6c63430008140033",
  "linkReferences": {},
  "deployedLinkReferences": {}
}