{
  "_format": "hh-sol-artifact-1",
  "contractName": "AuctionFactory",
  "sourceName": "contracts/AuctionFactory.sol",
  "abi": [
    {
      "inputs": [
        {
          "internalType": "uint256",
          "name": "_defaultAdminFeePercent",
          "type": "uint256"
        }
      ],
      "stateMutability": "nonpayable",
      "type": "constructor"
    },
    {
      "inputs": [],
      "name": "AccessControlBadConfirmation",
      "type": "error"
    },
    {
      "inputs": [
        {
          "internalType": "address",
          "name": "account",
          "type": "address"
        },
        {
          "internalType": "bytes32",
          "name": "neededRole",
          "type": "bytes32"
        }
      ],
      "name": "AccessControlUnauthorizedAccount",
      "type": "error"
    },
    {
      "anonymous": false,
      "inputs": [
        {
          "indexed": false,
          "internalType": "address",
          "name": "newAdmin",
          "type": "address"
        }
      ],
      "name": "AdminChanged",
      "type": "event"
    },
    {
      "anonymous": false,
      "inputs": [
        {
          "indexed": false,
          "internalType": "uint256",
          "name": "newAdminFeePercent",
          "type": "uint256"
        }
      ],
      "name": "AdminFeePercentChanged",
      "type": "event"
    },
    {
      "anonymous": false,
      "inputs": [
        {
          "indexed": false,
          "internalType": "address",
          "name": "auctionContract",
          "type": "address"
        }
      ],
      "name": "AucWithdrawed",
      "type": "event"
    },
    {
      "anonymous": false,
      "inputs": [
        {
          "indexed": false,
          "internalType": "address",
          "name": "auctionContract",
          "type": "address"
        }
      ],
      "name": "AuctionCreated",
      "type": "event"
    },
    {
      "anonymous": false,
      "inputs": [
        {
          "indexed": false,
          "internalType": "address",
          "name": "newManager",
          "type": "address"
        }
      ],
      "name": "ManagerAdded",
      "type": "event"
    },
    {
      "anonymous": false,
      "inputs": [
        {
          "indexed": false,
          "internalType": "address",
          "name": "manager",
          "type": "address"
        }
      ],
      "name": "ManagerRemoved",
      "type": "event"
    },
    {
      "anonymous": false,
      "inputs": [
        {
          "indexed": true,
          "internalType": "bytes32",
          "name": "role",
          "type": "bytes32"
        },
        {
          "indexed": true,
          "internalType": "bytes32",
          "name": "previousAdminRole",
          "type": "bytes32"
        },
        {
          "indexed": true,
          "internalType": "bytes32",
          "name": "newAdminRole",
          "type": "bytes32"
        }
      ],
      "name": "RoleAdminChanged",
      "type": "event"
    },
    {
      "anonymous": false,
      "inputs": [
        {
          "indexed": true,
          "internalType": "bytes32",
          "name": "role",
          "type": "bytes32"
        },
        {
          "indexed": true,
          "internalType": "address",
          "name": "account",
          "type": "address"
        },
        {
          "indexed": true,
          "internalType": "address",
          "name": "sender",
          "type": "address"
        }
      ],
      "name": "RoleGranted",
      "type": "event"
    },
    {
      "anonymous": false,
      "inputs": [
        {
          "indexed": true,
          "internalType": "bytes32",
          "name": "role",
          "type": "bytes32"
        },
        {
          "indexed": true,
          "internalType": "address",
          "name": "account",
          "type": "address"
        },
        {
          "indexed": true,
          "internalType": "address",
          "name": "sender",
          "type": "address"
        }
      ],
      "name": "RoleRevoked",
      "type": "event"
    },
    {
      "inputs": [],
      "name": "DEFAULT_ADMIN_ROLE",
      "outputs": [
        {
          "internalType": "bytes32",
          "name": "",
          "type": "bytes32"
        }
      ],
      "stateMutability": "view",
      "type": "function"
    },
    {
      "inputs": [],
      "name": "MANAGER_ROLE",
      "outputs": [
        {
          "internalType": "bytes32",
          "name": "",
          "type": "bytes32"
        }
      ],
      "stateMutability": "view",
      "type": "function"
    },
    {
      "inputs": [
        {
          "internalType": "address",
          "name": "_newManager",
          "type": "address"
        }
      ],
      "name": "addManager",
      "outputs": [],
      "stateMutability": "nonpayable",
      "type": "function"
    },
    {
      "inputs": [],
      "name": "admin",
      "outputs": [
        {
          "internalType": "address",
          "name": "",
          "type": "address"
        }
      ],
      "stateMutability": "view",
      "type": "function"
    },
    {
      "inputs": [],
      "name": "adminFeePercent",
      "outputs": [
        {
          "internalType": "uint256",
          "name": "",
          "type": "uint256"
        }
      ],
      "stateMutability": "view",
      "type": "function"
    },
    {
      "inputs": [
        {
          "internalType": "uint256",
          "name": "",
          "type": "uint256"
        }
      ],
      "name": "auctions",
      "outputs": [
        {
          "internalType": "address",
          "name": "",
          "type": "address"
        }
      ],
      "stateMutability": "view",
      "type": "function"
    },
    {
      "inputs": [
        {
          "internalType": "address",
          "name": "_newAdmin",
          "type": "address"
        }
      ],
      "name": "changeAdmin",
      "outputs": [],
      "stateMutability": "nonpayable",
      "type": "function"
    },
    {
      "inputs": [
        {
          "internalType": "address",
          "name": "_nftAddress",
          "type": "address"
        },
        {
          "internalType": "address",
          "name": "_aucAddress",
          "type": "address"
        },
        {
          "internalType": "uint256",
          "name": "_tokenId",
          "type": "uint256"
        },
        {
          "internalType": "uint256",
          "name": "_startingPrice",
          "type": "uint256"
        },
        {
          "internalType": "uint256",
          "name": "_duration",
          "type": "uint256"
        }
      ],
      "name": "createAuction",
      "outputs": [],
      "stateMutability": "nonpayable",
      "type": "function"
    },
    {
      "inputs": [
        {
          "internalType": "bytes32",
          "name": "role",
          "type": "bytes32"
        }
      ],
      "name": "getRoleAdmin",
      "outputs": [
        {
          "internalType": "bytes32",
          "name": "",
          "type": "bytes32"
        }
      ],
      "stateMutability": "view",
      "type": "function"
    },
    {
      "inputs": [
        {
          "internalType": "bytes32",
          "name": "role",
          "type": "bytes32"
        },
        {
          "internalType": "address",
          "name": "account",
          "type": "address"
        }
      ],
      "name": "grantRole",
      "outputs": [],
      "stateMutability": "nonpayable",
      "type": "function"
    },
    {
      "inputs": [
        {
          "internalType": "bytes32",
          "name": "role",
          "type": "bytes32"
        },
        {
          "internalType": "address",
          "name": "account",
          "type": "address"
        }
      ],
      "name": "hasRole",
      "outputs": [
        {
          "internalType": "bool",
          "name": "",
          "type": "bool"
        }
      ],
      "stateMutability": "view",
      "type": "function"
    },
    {
      "inputs": [
        {
          "internalType": "address",
          "name": "",
          "type": "address"
        },
        {
          "internalType": "uint256",
          "name": "",
          "type": "uint256"
        }
      ],
      "name": "isAuction",
      "outputs": [
        {
          "internalType": "bool",
          "name": "",
          "type": "bool"
        }
      ],
      "stateMutability": "view",
      "type": "function"
    },
    {
      "inputs": [
        {
          "internalType": "address",
          "name": "_auctionAddress",
          "type": "address"
        }
      ],
      "name": "notifyAuctionEnded",
      "outputs": [],
      "stateMutability": "nonpayable",
      "type": "function"
    },
    {
      "inputs": [
        {
          "internalType": "address",
          "name": "_manager",
          "type": "address"
        }
      ],
      "name": "removeManager",
      "outputs": [],
      "stateMutability": "nonpayable",
      "type": "function"
    },
    {
      "inputs": [
        {
          "internalType": "bytes32",
          "name": "role",
          "type": "bytes32"
        },
        {
          "internalType": "address",
          "name": "callerConfirmation",
          "type": "address"
        }
      ],
      "name": "renounceRole",
      "outputs": [],
      "stateMutability": "nonpayable",
      "type": "function"
    },
    {
      "inputs": [
        {
          "internalType": "bytes32",
          "name": "role",
          "type": "bytes32"
        },
        {
          "internalType": "address",
          "name": "account",
          "type": "address"
        }
      ],
      "name": "revokeRole",
      "outputs": [],
      "stateMutability": "nonpayable",
      "type": "function"
    },
    {
      "inputs": [
        {
          "internalType": "uint256",
          "name": "_adminFeePercent",
          "type": "uint256"
        }
      ],
      "name": "setAdminFeePercent",
      "outputs": [],
      "stateMutability": "nonpayable",
      "type": "function"
    },
    {
      "inputs": [
        {
          "internalType": "bytes4",
          "name": "interfaceId",
          "type": "bytes4"
        }
      ],
      "name": "supportsInterface",
      "outputs": [
        {
          "internalType": "bool",
          "name": "",
          "type": "bool"
        }
      ],
      "stateMutability": "view",
      "type": "function"
    },
    {
      "inputs": [],
      "name": "withdrawFees",
      "outputs": [],
      "stateMutability": "nonpayable",
      "type": "function"
    }
  ],
  "bytecode": "0x60806040523480156200001157600080fd5b5060405162004ab238038062004ab2833981810160405281019062000037919062000284565b8060028190555033600160006101000a81548173ffffffffffffffffffffffffffffffffffffffff021916908373ffffffffffffffffffffffffffffffffffffffff160217905550620000946000801b33620000cf60201b60201c565b50620000c77f241ecf16d79d0f8dbfb92cbc07fe17840425976cf0667f022fe9877caa831b0833620000cf60201b60201c565b5050620002b6565b6000620000e38383620001d260201b60201c565b620001c757600160008085815260200190815260200160002060000160008473ffffffffffffffffffffffffffffffffffffffff1673ffffffffffffffffffffffffffffffffffffffff16815260200190815260200160002060006101000a81548160ff021916908315150217905550620001636200023c60201b60201c565b73ffffffffffffffffffffffffffffffffffffffff168273ffffffffffffffffffffffffffffffffffffffff16847f2f8788117e7eff1d82e926ec794901d17c78024a50270940304540a733656f0d60405160405180910390a460019050620001cc565b600090505b92915050565b600080600084815260200190815260200160002060000160008373ffffffffffffffffffffffffffffffffffffffff1673ffffffffffffffffffffffffffffffffffffffff16815260200190815260200160002060009054906101000a900460ff16905092915050565b600033905090565b600080fd5b6000819050919050565b6200025e8162000249565b81146200026a57600080fd5b50565b6000815190506200027e8162000253565b92915050565b6000602082840312156200029d576200029c62000244565b5b6000620002ad848285016200026d565b91505092915050565b6147ec80620002c66000396000f3fe60806040523480156200001157600080fd5b50600436106200013c5760003560e01c80638f28397011620000bd578063d547741f116200007b578063d547741f1462000349578063d9a0cbb91462000369578063ec87621c146200039f578063eca9997214620003c1578063f851a44014620003e1576200013c565b80638f283970146200029157806391d1485414620002b1578063a217fddf14620002e7578063ac18de431462000309578063d1ff96051462000329576200013c565b8063310bf583116200010b578063310bf58314620001ed57806336568abe146200020d578063476343ee146200022d578063571a26a014620002395780638c7fb793146200026f576200013c565b806301ffc9a71462000141578063248a9ca314620001775780632d06177a14620001ad5780632f2ff15d14620001cd575b600080fd5b6200015f60048036038101906200015991906200170c565b62000403565b6040516200016e91906200175b565b60405180910390f35b6200019560048036038101906200018f9190620017b3565b62000480565b604051620001a49190620017f6565b60405180910390f35b620001cb6004803603810190620001c5919062001878565b6200049f565b005b620001eb6004803603810190620001e59190620018aa565b62000518565b005b6200020b60048036038101906200020591906200192c565b62000540565b005b6200022b6004803603810190620002259190620018aa565b6200093a565b005b62000237620009ba565b005b620002576004803603810190620002519190620019b4565b62000d32565b604051620002669190620019f7565b60405180910390f35b6200027962000d72565b60405162000288919062001a25565b60405180910390f35b620002af6004803603810190620002a9919062001878565b62000d78565b005b620002cf6004803603810190620002c99190620018aa565b62000e73565b604051620002de91906200175b565b60405180910390f35b620002f162000edd565b604051620003009190620017f6565b60405180910390f35b62000327600480360381019062000321919062001878565b62000ee4565b005b620003476004803603810190620003419190620019b4565b62000f5d565b005b620003676004803603810190620003619190620018aa565b62000fcd565b005b62000387600480360381019062000381919062001a42565b62000ff5565b6040516200039691906200175b565b60405180910390f35b620003a962001024565b604051620003b89190620017f6565b60405180910390f35b620003df6004803603810190620003d9919062001878565b62001048565b005b620003eb6200120d565b604051620003fa9190620019f7565b60405180910390f35b60007f7965db0b000000000000000000000000000000000000000000000000000000007bffffffffffffffffffffffffffffffffffffffffffffffffffffffff1916827bffffffffffffffffffffffffffffffffffffffffffffffffffffffff19161480620004795750620004788262001233565b5b9050919050565b6000806000838152602001908152602001600020600101549050919050565b6000801b620004ae816200129d565b620004da7f241ecf16d79d0f8dbfb92cbc07fe17840425976cf0667f022fe9877caa831b0883620012b5565b507f3b4a40cccf2058c593542587329dd385be4f0b588db5471fbd9598e56dd7093a826040516200050c9190620019f7565b60405180910390a15050565b620005238262000480565b6200052e816200129d565b6200053a8383620012b5565b50505050565b60001515600460008773ffffffffffffffffffffffffffffffffffffffff1673ffffffffffffffffffffffffffffffffffffffff168152602001908152602001600020600085815260200190815260200160002060009054906101000a900460ff16151514620005e7576040517f08c379a0000000000000000000000000000000000000000000000000000000008152600401620005de9062001b10565b60405180910390fd5b603c8110156200062e576040517f08c379a0000000000000000000000000000000000000000000000000000000008152600401620006259062001ba8565b60405180910390fd5b60008590503373ffffffffffffffffffffffffffffffffffffffff168173ffffffffffffffffffffffffffffffffffffffff16636352211e866040518263ffffffff1660e01b815260040162000685919062001a25565b602060405180830381865afa158015620006a3573d6000803e3d6000fd5b505050506040513d601f19601f82011682018060405250810190620006c9919062001be1565b73ffffffffffffffffffffffffffffffffffffffff161462000722576040517f08c379a0000000000000000000000000000000000000000000000000000000008152600401620007199062001c89565b60405180910390fd5b6000868633878787600160009054906101000a900473ffffffffffffffffffffffffffffffffffffffff16600254306040516200075f9062001690565b620007739998979695949392919062001cab565b604051809103906000f08015801562000790573d6000803e3d6000fd5b509050620007b960405180606001604052806033815260200162004784603391398233620013ac565b6003819080600181540180825580915050600190039060005260206000200160009091909190916101000a81548173ffffffffffffffffffffffffffffffffffffffff021916908373ffffffffffffffffffffffffffffffffffffffff1602179055508173ffffffffffffffffffffffffffffffffffffffff166323b872dd3383886040518463ffffffff1660e01b81526004016200085b9392919062001d4a565b600060405180830381600087803b1580156200087657600080fd5b505af11580156200088b573d6000803e3d6000fd5b505050506001600460008973ffffffffffffffffffffffffffffffffffffffff1673ffffffffffffffffffffffffffffffffffffffff168152602001908152602001600020600087815260200190815260200160002060006101000a81548160ff0219169083151502179055507f8a8cc462d00726e0f8c031dd2d6b9dcdf0794fb27a88579830dadee27d43ea7c81604051620009299190620019f7565b60405180910390a150505050505050565b620009446200144f565b73ffffffffffffffffffffffffffffffffffffffff168173ffffffffffffffffffffffffffffffffffffffff1614620009a9576040517f6697b23200000000000000000000000000000000000000000000000000000000815260040160405180910390fd5b620009b5828262001457565b505050565b7f241ecf16d79d0f8dbfb92cbc07fe17840425976cf0667f022fe9877caa831b08620009e6816200129d565b60005b60038054905081101562000d2e5760006003828154811062000a105762000a0f62001d87565b5b9060005260206000200160009054906101000a900473ffffffffffffffffffffffffffffffffffffffff1690508073ffffffffffffffffffffffffffffffffffffffff166312fa6feb6040518163ffffffff1660e01b8152600401602060405180830381865afa15801562000a89573d6000803e3d6000fd5b505050506040513d601f19601f8201168201806040525081019062000aaf919062001de7565b1562000d17578073ffffffffffffffffffffffffffffffffffffffff16633ccfd60b6040518163ffffffff1660e01b8152600401600060405180830381600087803b15801562000afe57600080fd5b505af192505050801562000b10575060015b62000b9d5762000b976040518060400160405280601e81526020017f5769746864726177206661696c656420666f722061756374696f6e20257300008152506003848154811062000b665762000b6562001d87565b5b9060005260206000200160009054906101000a900473ffffffffffffffffffffffffffffffffffffffff166200154f565b62000d16565b7fefe3d047a6680e39b4bf6b982792f74360791d2595c8e5a77d569c2a5de569596003838154811062000bd55762000bd462001d87565b5b9060005260206000200160009054906101000a900473ffffffffffffffffffffffffffffffffffffffff1660405162000c0f9190620019f7565b60405180910390a16003600160038054905062000c2d919062001e48565b8154811062000c415762000c4062001d87565b5b9060005260206000200160009054906101000a900473ffffffffffffffffffffffffffffffffffffffff166003838154811062000c835762000c8262001d87565b5b9060005260206000200160006101000a81548173ffffffffffffffffffffffffffffffffffffffff021916908373ffffffffffffffffffffffffffffffffffffffff160217905550600380548062000ce05762000cdf62001e83565b5b6001900381819060005260206000200160006101000a81549073ffffffffffffffffffffffffffffffffffffffff021916905590555b5b50808062000d259062001eb2565b915050620009e9565b5050565b6003818154811062000d4357600080fd5b906000526020600020016000915054906101000a900473ffffffffffffffffffffffffffffffffffffffff1681565b60025481565b6000801b62000d87816200129d565b62000d966000801b83620012b5565b5062000dc37f241ecf16d79d0f8dbfb92cbc07fe17840425976cf0667f022fe9877caa831b0883620012b5565b5062000df56000801b600160009054906101000a900473ffffffffffffffffffffffffffffffffffffffff166200093a565b81600160006101000a81548173ffffffffffffffffffffffffffffffffffffffff021916908373ffffffffffffffffffffffffffffffffffffffff1602179055507f7ce7ec0b50378fb6c0186ffb5f48325f6593fcb4ca4386f21861af3129188f5c8260405162000e679190620019f7565b60405180910390a15050565b600080600084815260200190815260200160002060000160008373ffffffffffffffffffffffffffffffffffffffff1673ffffffffffffffffffffffffffffffffffffffff16815260200190815260200160002060009054906101000a900460ff16905092915050565b6000801b81565b6000801b62000ef3816200129d565b62000f1f7f241ecf16d79d0f8dbfb92cbc07fe17840425976cf0667f022fe9877caa831b088362001457565b507fef69f7d97228658c92417be1b16b19058315de71fecb435d07b7d23728b6bd318260405162000f519190620019f7565b60405180910390a15050565b7f241ecf16d79d0f8dbfb92cbc07fe17840425976cf0667f022fe9877caa831b0862000f89816200129d565b816002819055507fd6a8678c6608db8a79acae4d68694d926b8ed615038b7d0ca932ea06fcaf7cb58260405162000fc1919062001a25565b60405180910390a15050565b62000fd88262000480565b62000fe3816200129d565b62000fef838362001457565b50505050565b60046020528160005260406000206020528060005260406000206000915091509054906101000a900460ff1681565b7f241ecf16d79d0f8dbfb92cbc07fe17840425976cf0667f022fe9877caa831b0881565b8073ffffffffffffffffffffffffffffffffffffffff163373ffffffffffffffffffffffffffffffffffffffff1614620010b9576040517f08c379a0000000000000000000000000000000000000000000000000000000008152600401620010b09062001f75565b60405180910390fd5b60008190506000600460008373ffffffffffffffffffffffffffffffffffffffff166347ccca026040518163ffffffff1660e01b8152600401602060405180830381865afa15801562001110573d6000803e3d6000fd5b505050506040513d601f19601f8201168201806040525081019062001136919062001fdc565b73ffffffffffffffffffffffffffffffffffffffff1673ffffffffffffffffffffffffffffffffffffffff16815260200190815260200160002060008373ffffffffffffffffffffffffffffffffffffffff166317d70f7c6040518163ffffffff1660e01b8152600401602060405180830381865afa158015620011be573d6000803e3d6000fd5b505050506040513d601f19601f82011682018060405250810190620011e4919062002025565b815260200190815260200160002060006101000a81548160ff0219169083151502179055505050565b600160009054906101000a900473ffffffffffffffffffffffffffffffffffffffff1681565b60007f01ffc9a7000000000000000000000000000000000000000000000000000000007bffffffffffffffffffffffffffffffffffffffffffffffffffffffff1916827bffffffffffffffffffffffffffffffffffffffffffffffffffffffff1916149050919050565b620012b281620012ac6200144f565b620015ef565b50565b6000620012c3838362000e73565b620013a157600160008085815260200190815260200160002060000160008473ffffffffffffffffffffffffffffffffffffffff1673ffffffffffffffffffffffffffffffffffffffff16815260200190815260200160002060006101000a81548160ff0219169083151502179055506200133d6200144f565b73ffffffffffffffffffffffffffffffffffffffff168273ffffffffffffffffffffffffffffffffffffffff16847f2f8788117e7eff1d82e926ec794901d17c78024a50270940304540a733656f0d60405160405180910390a460019050620013a6565b600090505b92915050565b6200144a838383604051602401620013c793929190620020e0565b6040516020818303038152906040527ffcec75e0000000000000000000000000000000000000000000000000000000007bffffffffffffffffffffffffffffffffffffffffffffffffffffffff19166020820180517bffffffffffffffffffffffffffffffffffffffffffffffffffffffff838183161783525050505062001645565b505050565b600033905090565b600062001465838362000e73565b156200154457600080600085815260200190815260200160002060000160008473ffffffffffffffffffffffffffffffffffffffff1673ffffffffffffffffffffffffffffffffffffffff16815260200190815260200160002060006101000a81548160ff021916908315150217905550620014e06200144f565b73ffffffffffffffffffffffffffffffffffffffff168273ffffffffffffffffffffffffffffffffffffffff16847ff6391f5c32d9c69d2a47ea670b442974b53935d1edc7fd64eb21e047a839171b60405160405180910390a46001905062001549565b600090505b92915050565b620015eb82826040516024016200156892919062002124565b6040516020818303038152906040527f319af333000000000000000000000000000000000000000000000000000000007bffffffffffffffffffffffffffffffffffffffffffffffffffffffff19166020820180517bffffffffffffffffffffffffffffffffffffffffffffffffffffffff838183161783525050505062001645565b5050565b620015fb828262000e73565b620016415780826040517fe2517d3f0000000000000000000000000000000000000000000000000000000081526004016200163892919062002158565b60405180910390fd5b5050565b6200166081620016586200166362001684565b63ffffffff16565b50565b60006a636f6e736f6c652e6c6f679050600080835160208501845afa505050565b6200169e819050919050565b6125cf80620021b583390190565b620016a862002185565b565b600080fd5b60007fffffffff0000000000000000000000000000000000000000000000000000000082169050919050565b620016e681620016af565b8114620016f257600080fd5b50565b6000813590506200170681620016db565b92915050565b600060208284031215620017255762001724620016aa565b5b60006200173584828501620016f5565b91505092915050565b60008115159050919050565b62001755816200173e565b82525050565b60006020820190506200177260008301846200174a565b92915050565b6000819050919050565b6200178d8162001778565b81146200179957600080fd5b50565b600081359050620017ad8162001782565b92915050565b600060208284031215620017cc57620017cb620016aa565b5b6000620017dc848285016200179c565b91505092915050565b620017f08162001778565b82525050565b60006020820190506200180d6000830184620017e5565b92915050565b600073ffffffffffffffffffffffffffffffffffffffff82169050919050565b6000620018408262001813565b9050919050565b620018528162001833565b81146200185e57600080fd5b50565b600081359050620018728162001847565b92915050565b600060208284031215620018915762001890620016aa565b5b6000620018a18482850162001861565b91505092915050565b60008060408385031215620018c457620018c3620016aa565b5b6000620018d4858286016200179c565b9250506020620018e78582860162001861565b9150509250929050565b6000819050919050565b6200190681620018f1565b81146200191257600080fd5b50565b6000813590506200192681620018fb565b92915050565b600080600080600060a086880312156200194b576200194a620016aa565b5b60006200195b8882890162001861565b95505060206200196e8882890162001861565b9450506040620019818882890162001915565b9350506060620019948882890162001915565b9250506080620019a78882890162001915565b9150509295509295909350565b600060208284031215620019cd57620019cc620016aa565b5b6000620019dd8482850162001915565b91505092915050565b620019f18162001833565b82525050565b600060208201905062001a0e6000830184620019e6565b92915050565b62001a1f81620018f1565b82525050565b600060208201905062001a3c600083018462001a14565b92915050565b6000806040838503121562001a5c5762001a5b620016aa565b5b600062001a6c8582860162001861565b925050602062001a7f8582860162001915565b9150509250929050565b600082825260208201905092915050565b7f41756374696f6e20616c72656164792065786973747320666f7220746869732060008201527f4e4654206974656d2e0000000000000000000000000000000000000000000000602082015250565b600062001af860298362001a89565b915062001b058262001a9a565b604082019050919050565b6000602082019050818103600083015262001b2b8162001ae9565b9050919050565b7f41756374696f6e206475726174696f6e206d757374206265206174206c65617360008201527f742031206d696e7574652e000000000000000000000000000000000000000000602082015250565b600062001b90602b8362001a89565b915062001b9d8262001b32565b604082019050919050565b6000602082019050818103600083015262001bc38162001b81565b9050919050565b60008151905062001bdb8162001847565b92915050565b60006020828403121562001bfa5762001bf9620016aa565b5b600062001c0a8482850162001bca565b91505092915050565b7f596f7520617265206e6f7420746865206f776e6572206f662074686973204e4660008201527f542e000000000000000000000000000000000000000000000000000000000000602082015250565b600062001c7160228362001a89565b915062001c7e8262001c13565b604082019050919050565b6000602082019050818103600083015262001ca48162001c62565b9050919050565b60006101208201905062001cc3600083018c620019e6565b62001cd2602083018b620019e6565b62001ce1604083018a620019e6565b62001cf0606083018962001a14565b62001cff608083018862001a14565b62001d0e60a083018762001a14565b62001d1d60c0830186620019e6565b62001d2c60e083018562001a14565b62001d3c610100830184620019e6565b9a9950505050505050505050565b600060608201905062001d616000830186620019e6565b62001d706020830185620019e6565b62001d7f604083018462001a14565b949350505050565b7f4e487b7100000000000000000000000000000000000000000000000000000000600052603260045260246000fd5b62001dc1816200173e565b811462001dcd57600080fd5b50565b60008151905062001de18162001db6565b92915050565b60006020828403121562001e005762001dff620016aa565b5b600062001e108482850162001dd0565b91505092915050565b7f4e487b7100000000000000000000000000000000000000000000000000000000600052601160045260246000fd5b600062001e5582620018f1565b915062001e6283620018f1565b925082820390508181111562001e7d5762001e7c62001e19565b5b92915050565b7f4e487b7100000000000000000000000000000000000000000000000000000000600052603160045260246000fd5b600062001ebf82620018f1565b91507fffffffffffffffffffffffffffffffffffffffffffffffffffffffffffffffff820362001ef45762001ef362001e19565b5b600182019050919050565b7f4f6e6c79207468652061756374696f6e20636f6e74726163742063616e20636160008201527f6c6c207468697300000000000000000000000000000000000000000000000000602082015250565b600062001f5d60278362001a89565b915062001f6a8262001eff565b604082019050919050565b6000602082019050818103600083015262001f908162001f4e565b9050919050565b600062001fa48262001833565b9050919050565b62001fb68162001f97565b811462001fc257600080fd5b50565b60008151905062001fd68162001fab565b92915050565b60006020828403121562001ff55762001ff4620016aa565b5b6000620020058482850162001fc5565b91505092915050565b6000815190506200201f81620018fb565b92915050565b6000602082840312156200203e576200203d620016aa565b5b60006200204e848285016200200e565b91505092915050565b600081519050919050565b60005b838110156200208257808201518184015260208101905062002065565b60008484015250505050565b6000601f19601f8301169050919050565b6000620020ac8262002057565b620020b8818562001a89565b9350620020ca81856020860162002062565b620020d5816200208e565b840191505092915050565b60006060820190508181036000830152620020fc81866200209f565b90506200210d6020830185620019e6565b6200211c6040830184620019e6565b949350505050565b600060408201905081810360008301526200214081856200209f565b9050620021516020830184620019e6565b9392505050565b60006040820190506200216f6000830185620019e6565b6200217e6020830184620017e5565b9392505050565b7f4e487b7100000000000000000000000000000000000000000000000000000000600052605160045260246000fdfe60806040523480156200001157600080fd5b50604051620025cf380380620025cf8339818101604052810190620000379190620002ac565b886000806101000a81548173ffffffffffffffffffffffffffffffffffffffff021916908373ffffffffffffffffffffffffffffffffffffffff160217905550600073ffffffffffffffffffffffffffffffffffffffff168873ffffffffffffffffffffffffffffffffffffffff1614620000b35787620000c9565b73b3828af7f16edbeeef43b5403871a5d979efa5215b975087600160006101000a81548173ffffffffffffffffffffffffffffffffffffffff021916908373ffffffffffffffffffffffffffffffffffffffff16021790555085600281905550846005819055508342620001289190620003ba565b60048190555086600360006101000a81548173ffffffffffffffffffffffffffffffffffffffff021916908373ffffffffffffffffffffffffffffffffffffffff16021790555082600860006101000a81548173ffffffffffffffffffffffffffffffffffffffff021916908373ffffffffffffffffffffffffffffffffffffffff1602179055508160098190555080600a60006101000a81548173ffffffffffffffffffffffffffffffffffffffff021916908373ffffffffffffffffffffffffffffffffffffffff160217905550505050505050505050620003f5565b600080fd5b600073ffffffffffffffffffffffffffffffffffffffff82169050919050565b600062000239826200020c565b9050919050565b6200024b816200022c565b81146200025757600080fd5b50565b6000815190506200026b8162000240565b92915050565b6000819050919050565b620002868162000271565b81146200029257600080fd5b50565b600081519050620002a6816200027b565b92915050565b60008060008060008060008060006101208a8c031215620002d257620002d162000207565b5b6000620002e28c828d016200025a565b9950506020620002f58c828d016200025a565b9850506040620003088c828d016200025a565b97505060606200031b8c828d0162000295565b96505060806200032e8c828d0162000295565b95505060a0620003418c828d0162000295565b94505060c0620003548c828d016200025a565b93505060e0620003678c828d0162000295565b9250506101006200037b8c828d016200025a565b9150509295985092959850929598565b7f4e487b7100000000000000000000000000000000000000000000000000000000600052601160045260246000fd5b6000620003c78262000271565b9150620003d48362000271565b9250828201905080821115620003ef57620003ee6200038b565b5b92915050565b6121ca80620004056000396000f3fe608060405234801561001057600080fd5b50600436106101215760003560e01c80638fa8b790116100ad578063d1a261c911610071578063d1a261c91461028a578063d57bde79146102a8578063d6fbf202146102c6578063f851a440146102e4578063fe67a54b1461030257610121565b80638fa8b7901461020a57806391f9015714610214578063966dae0e146102325780639979ef4514610250578063c303c65e1461026c57610121565b806347ccca02116100f457806347ccca021461018a5780634a4b5c26146101a85780635ec2c7bf146101c4578063672756ad146101e25780638c7fb793146101ec57610121565b806312fa6feb1461012657806317d70f7c146101445780633197cbb6146101625780633ccfd60b14610180575b600080fd5b61012e61030c565b60405161013b919061187b565b60405180910390f35b61014c61031f565b60405161015991906118af565b60405180910390f35b61016a610325565b60405161017791906118af565b60405180910390f35b61018861032b565b005b6101926104f6565b60405161019f9190611949565b60405180910390f35b6101c260048036038101906101bd9190611995565b61051a565b005b6101cc610713565b6040516101d991906119e3565b60405180910390f35b6101ea610739565b005b6101f4610add565b60405161020191906118af565b60405180910390f35b610212610ae3565b005b61021c610ea5565b60405161022991906119e3565b60405180910390f35b61023a610ecb565b60405161024791906119e3565b60405180910390f35b61026a60048036038101906102659190611995565b610ef1565b005b610274611315565b6040516102819190611a1f565b60405180910390f35b61029261133b565b60405161029f919061187b565b60405180910390f35b6102b061134e565b6040516102bd91906118af565b60405180910390f35b6102ce611354565b6040516102db91906118af565b60405180910390f35b6102ec61135a565b6040516102f991906119e3565b60405180910390f35b61030a611380565b005b600a60149054906101000a900460ff1681565b60025481565b60045481565b600a60149054906101000a900460ff1661037a576040517f08c379a000000000000000000000000000000000000000000000000000000000815260040161037190611a97565b60405180910390fd5b600a60159054906101000a900460ff16156104f4576000600160009054906101000a900473ffffffffffffffffffffffffffffffffffffffff1673ffffffffffffffffffffffffffffffffffffffff166370a08231306040518263ffffffff1660e01b81526004016103ec91906119e3565b602060405180830381865afa158015610409573d6000803e3d6000fd5b505050506040513d601f19601f8201168201806040525081019061042d9190611acc565b9050600160009054906101000a900473ffffffffffffffffffffffffffffffffffffffff1673ffffffffffffffffffffffffffffffffffffffff1663a9059cbb600860009054906101000a900473ffffffffffffffffffffffffffffffffffffffff16836040518363ffffffff1660e01b81526004016104ae929190611af9565b6020604051808303816000875af11580156104cd573d6000803e3d6000fd5b505050506040513d601f19601f820116820180604052508101906104f19190611b4e565b50505b565b60008054906101000a900473ffffffffffffffffffffffffffffffffffffffff1681565b600360009054906101000a900473ffffffffffffffffffffffffffffffffffffffff1673ffffffffffffffffffffffffffffffffffffffff163373ffffffffffffffffffffffffffffffffffffffff16146105aa576040517f08c379a00000000000000000000000000000000000000000000000000000000081526004016105a190611bed565b60405180910390fd5b600a60149054906101000a900460ff16156105fa576040517f08c379a00000000000000000000000000000000000000000000000000000000081526004016105f190611c59565b60405180910390fd5b600454421061063e576040517f08c379a000000000000000000000000000000000000000000000000000000000815260040161063590611cc5565b60405180910390fd5b600a60159054906101000a900460ff161561068e576040517f08c379a000000000000000000000000000000000000000000000000000000000815260040161068590611d31565b60405180910390fd5b60055481106106d2576040517f08c379a00000000000000000000000000000000000000000000000000000000081526004016106c990611d9d565b60405180910390fd5b806005819055507f911a54033311b611572efd688f0d2257db35d113636d6802858c881c78ab26448160405161070891906118af565b60405180910390a150565b600360009054906101000a900473ffffffffffffffffffffffffffffffffffffffff1681565b600454421161077d576040517f08c379a000000000000000000000000000000000000000000000000000000000815260040161077490611e09565b60405180910390fd5b600a60159054906101000a900460ff166107cc576040517f08c379a00000000000000000000000000000000000000000000000000000000081526004016107c390611e75565b60405180910390fd5b600a60149054906101000a900460ff161561081c576040517f08c379a000000000000000000000000000000000000000000000000000000000815260040161081390611c59565b60405180910390fd5b6001600a60146101000a81548160ff02191690831515021790555060008054906101000a900473ffffffffffffffffffffffffffffffffffffffff1673ffffffffffffffffffffffffffffffffffffffff166323b872dd30600660009054906101000a900473ffffffffffffffffffffffffffffffffffffffff166002546040518463ffffffff1660e01b81526004016108b893929190611e95565b600060405180830381600087803b1580156108d257600080fd5b505af11580156108e6573d6000803e3d6000fd5b5050505060006103e86009546007546108ff9190611efb565b6109099190611f6c565b9050600160009054906101000a900473ffffffffffffffffffffffffffffffffffffffff1673ffffffffffffffffffffffffffffffffffffffff1663a9059cbb600360009054906101000a900473ffffffffffffffffffffffffffffffffffffffff168360075461097a9190611f9d565b6040518363ffffffff1660e01b8152600401610997929190611af9565b6020604051808303816000875af11580156109b6573d6000803e3d6000fd5b505050506040513d601f19601f820116820180604052508101906109da9190611b4e565b50600660009054906101000a900473ffffffffffffffffffffffffffffffffffffffff1673ffffffffffffffffffffffffffffffffffffffff167fdaec4582d5d9595688c8c98545fdd1c696d41c6aeaeb636737e84ed2f5c00eda600754604051610a4591906118af565b60405180910390a250600a60009054906101000a900473ffffffffffffffffffffffffffffffffffffffff1673ffffffffffffffffffffffffffffffffffffffff1663eca99972306040518263ffffffff1660e01b8152600401610aa991906119e3565b600060405180830381600087803b158015610ac357600080fd5b505af1158015610ad7573d6000803e3d6000fd5b50505050565b60095481565b600360009054906101000a900473ffffffffffffffffffffffffffffffffffffffff1673ffffffffffffffffffffffffffffffffffffffff163373ffffffffffffffffffffffffffffffffffffffff1614610b73576040517f08c379a0000000000000000000000000000000000000000000000000000000008152600401610b6a90611bed565b60405180910390fd5b600a60149054906101000a900460ff1615610bc3576040517f08c379a0000000000000000000000000000000000000000000000000000000008152600401610bba90611c59565b60405180910390fd5b6004544210610c07576040517f08c379a0000000000000000000000000000000000000000000000000000000008152600401610bfe90611cc5565b60405180910390fd5b6001600a60146101000a81548160ff02191690831515021790555060008054906101000a900473ffffffffffffffffffffffffffffffffffffffff1673ffffffffffffffffffffffffffffffffffffffff166323b872dd30600360009054906101000a900473ffffffffffffffffffffffffffffffffffffffff166002546040518463ffffffff1660e01b8152600401610ca393929190611e95565b600060405180830381600087803b158015610cbd57600080fd5b505af1158015610cd1573d6000803e3d6000fd5b50505050600060075414610da557600160009054906101000a900473ffffffffffffffffffffffffffffffffffffffff1673ffffffffffffffffffffffffffffffffffffffff1663a9059cbb600660009054906101000a900473ffffffffffffffffffffffffffffffffffffffff166007546040518363ffffffff1660e01b8152600401610d60929190611af9565b6020604051808303816000875af1158015610d7f573d6000803e3d6000fd5b505050506040513d601f19601f82011682018060405250810190610da39190611b4e565b505b600360009054906101000a900473ffffffffffffffffffffffffffffffffffffffff1673ffffffffffffffffffffffffffffffffffffffff167fdaec4582d5d9595688c8c98545fdd1c696d41c6aeaeb636737e84ed2f5c00eda6000604051610e0e919061200c565b60405180910390a2600a60009054906101000a900473ffffffffffffffffffffffffffffffffffffffff1673ffffffffffffffffffffffffffffffffffffffff1663eca99972306040518263ffffffff1660e01b8152600401610e7191906119e3565b600060405180830381600087803b158015610e8b57600080fd5b505af1158015610e9f573d6000803e3d6000fd5b50505050565b600660009054906101000a900473ffffffffffffffffffffffffffffffffffffffff1681565b600a60009054906101000a900473ffffffffffffffffffffffffffffffffffffffff1681565b600a60149054906101000a900460ff1615610f41576040517f08c379a0000000000000000000000000000000000000000000000000000000008152600401610f3890611c59565b60405180910390fd5b6004544210610f85576040517f08c379a0000000000000000000000000000000000000000000000000000000008152600401610f7c90611cc5565b60405180910390fd5b6007548111610fc9576040517f08c379a0000000000000000000000000000000000000000000000000000000008152600401610fc090612073565b60405180910390fd5b80600160009054906101000a900473ffffffffffffffffffffffffffffffffffffffff1673ffffffffffffffffffffffffffffffffffffffff1663dd62ed3e33306040518363ffffffff1660e01b8152600401611027929190612093565b602060405180830381865afa158015611044573d6000803e3d6000fd5b505050506040513d601f19601f820116820180604052508101906110689190611acc565b10156110a9576040517f08c379a00000000000000000000000000000000000000000000000000000000081526004016110a090612108565b60405180910390fd5b6005548110156110ee576040517f08c379a00000000000000000000000000000000000000000000000000000000081526004016110e590612174565b60405180910390fd5b6000600754146111be57600160009054906101000a900473ffffffffffffffffffffffffffffffffffffffff1673ffffffffffffffffffffffffffffffffffffffff1663a9059cbb600660009054906101000a900473ffffffffffffffffffffffffffffffffffffffff166007546040518363ffffffff1660e01b8152600401611179929190611af9565b6020604051808303816000875af1158015611198573d6000803e3d6000fd5b505050506040513d601f19601f820116820180604052508101906111bc9190611b4e565b505b600160009054906101000a900473ffffffffffffffffffffffffffffffffffffffff1673ffffffffffffffffffffffffffffffffffffffff166323b872dd3330846040518463ffffffff1660e01b815260040161121d93929190611e95565b6020604051808303816000875af115801561123c573d6000803e3d6000fd5b505050506040513d601f19601f820116820180604052508101906112609190611b4e565b508060078190555033600660006101000a81548173ffffffffffffffffffffffffffffffffffffffff021916908373ffffffffffffffffffffffffffffffffffffffff1602179055506001600a60156101000a81548160ff0219169083151502179055503373ffffffffffffffffffffffffffffffffffffffff167f3fabff0a9c3ecd6814702e247fa9733e5d0aa69e3a38590f92cb18f623a2254d8260405161130a91906118af565b60405180910390a250565b600160009054906101000a900473ffffffffffffffffffffffffffffffffffffffff1681565b600a60159054906101000a900460ff1681565b60075481565b60055481565b600860009054906101000a900473ffffffffffffffffffffffffffffffffffffffff1681565b600360009054906101000a900473ffffffffffffffffffffffffffffffffffffffff1673ffffffffffffffffffffffffffffffffffffffff163373ffffffffffffffffffffffffffffffffffffffff1614611410576040517f08c379a000000000000000000000000000000000000000000000000000000000815260040161140790611bed565b60405180910390fd5b600a60149054906101000a900460ff1615611460576040517f08c379a000000000000000000000000000000000000000000000000000000000815260040161145790611c59565b60405180910390fd5b6001600a60146101000a81548160ff021916908315150217905550600a60159054906101000a900460ff16156116ac5760008054906101000a900473ffffffffffffffffffffffffffffffffffffffff1673ffffffffffffffffffffffffffffffffffffffff166323b872dd30600660009054906101000a900473ffffffffffffffffffffffffffffffffffffffff166002546040518463ffffffff1660e01b815260040161151193929190611e95565b600060405180830381600087803b15801561152b57600080fd5b505af115801561153f573d6000803e3d6000fd5b5050505060006103e86009546007546115589190611efb565b6115629190611f6c565b9050600160009054906101000a900473ffffffffffffffffffffffffffffffffffffffff1673ffffffffffffffffffffffffffffffffffffffff1663a9059cbb600360009054906101000a900473ffffffffffffffffffffffffffffffffffffffff16836007546115d39190611f9d565b6040518363ffffffff1660e01b81526004016115f0929190611af9565b6020604051808303816000875af115801561160f573d6000803e3d6000fd5b505050506040513d601f19601f820116820180604052508101906116339190611b4e565b50600660009054906101000a900473ffffffffffffffffffffffffffffffffffffffff1673ffffffffffffffffffffffffffffffffffffffff167fdaec4582d5d9595688c8c98545fdd1c696d41c6aeaeb636737e84ed2f5c00eda60075460405161169e91906118af565b60405180910390a2506117d1565b60008054906101000a900473ffffffffffffffffffffffffffffffffffffffff1673ffffffffffffffffffffffffffffffffffffffff166323b872dd30600360009054906101000a900473ffffffffffffffffffffffffffffffffffffffff166002546040518463ffffffff1660e01b815260040161172d93929190611e95565b600060405180830381600087803b15801561174757600080fd5b505af115801561175b573d6000803e3d6000fd5b50505050600360009054906101000a900473ffffffffffffffffffffffffffffffffffffffff1673ffffffffffffffffffffffffffffffffffffffff167fdaec4582d5d9595688c8c98545fdd1c696d41c6aeaeb636737e84ed2f5c00eda60006040516117c8919061200c565b60405180910390a25b600a60009054906101000a900473ffffffffffffffffffffffffffffffffffffffff1673ffffffffffffffffffffffffffffffffffffffff1663eca99972306040518263ffffffff1660e01b815260040161182c91906119e3565b600060405180830381600087803b15801561184657600080fd5b505af115801561185a573d6000803e3d6000fd5b50505050565b60008115159050919050565b61187581611860565b82525050565b6000602082019050611890600083018461186c565b92915050565b6000819050919050565b6118a981611896565b82525050565b60006020820190506118c460008301846118a0565b92915050565b600073ffffffffffffffffffffffffffffffffffffffff82169050919050565b6000819050919050565b600061190f61190a611905846118ca565b6118ea565b6118ca565b9050919050565b6000611921826118f4565b9050919050565b600061193382611916565b9050919050565b61194381611928565b82525050565b600060208201905061195e600083018461193a565b92915050565b600080fd5b61197281611896565b811461197d57600080fd5b50565b60008135905061198f81611969565b92915050565b6000602082840312156119ab576119aa611964565b5b60006119b984828501611980565b91505092915050565b60006119cd826118ca565b9050919050565b6119dd816119c2565b82525050565b60006020820190506119f860008301846119d4565b92915050565b6000611a0982611916565b9050919050565b611a19816119fe565b82525050565b6000602082019050611a346000830184611a10565b92915050565b600082825260208201905092915050565b7f41756374696f6e206e6f74207965742073657420746f20656e6465642e000000600082015250565b6000611a81601d83611a3a565b9150611a8c82611a4b565b602082019050919050565b60006020820190508181036000830152611ab081611a74565b9050919050565b600081519050611ac681611969565b92915050565b600060208284031215611ae257611ae1611964565b5b6000611af084828501611ab7565b91505092915050565b6000604082019050611b0e60008301856119d4565b611b1b60208301846118a0565b9392505050565b611b2b81611860565b8114611b3657600080fd5b50565b600081519050611b4881611b22565b92915050565b600060208284031215611b6457611b63611964565b5b6000611b7284828501611b39565b91505092915050565b7f4f6e6c792061756374696f6e6565722063616e2063616c6c207468697320667560008201527f6e6374696f6e2e00000000000000000000000000000000000000000000000000602082015250565b6000611bd7602783611a3a565b9150611be282611b7b565b604082019050919050565b60006020820190508181036000830152611c0681611bca565b9050919050565b7f41756374696f6e20616c726561647920656e6465642e00000000000000000000600082015250565b6000611c43601683611a3a565b9150611c4e82611c0d565b602082019050919050565b60006020820190508181036000830152611c7281611c36565b9050919050565b7f41756374696f6e20616c726561647920657870697265642e0000000000000000600082015250565b6000611caf601883611a3a565b9150611cba82611c79565b602082019050919050565b60006020820190508181036000830152611cde81611ca2565b9050919050565b7f42696420616c726561647920706c616365642e00000000000000000000000000600082015250565b6000611d1b601383611a3a565b9150611d2682611ce5565b602082019050919050565b60006020820190508181036000830152611d4a81611d0e565b9050919050565b7f4e6577207072696365206d757374206265206c6f776572000000000000000000600082015250565b6000611d87601783611a3a565b9150611d9282611d51565b602082019050919050565b60006020820190508181036000830152611db681611d7a565b9050919050565b7f41756374696f6e207374696c6c206f6e676f696e672e00000000000000000000600082015250565b6000611df3601683611a3a565b9150611dfe82611dbd565b602082019050919050565b60006020820190508181036000830152611e2281611de6565b9050919050565b7f426964206e6f742079657420706c616365642e00000000000000000000000000600082015250565b6000611e5f601383611a3a565b9150611e6a82611e29565b602082019050919050565b60006020820190508181036000830152611e8e81611e52565b9050919050565b6000606082019050611eaa60008301866119d4565b611eb760208301856119d4565b611ec460408301846118a0565b949350505050565b7f4e487b7100000000000000000000000000000000000000000000000000000000600052601160045260246000fd5b6000611f0682611896565b9150611f1183611896565b9250828202611f1f81611896565b91508282048414831517611f3657611f35611ecc565b5b5092915050565b7f4e487b7100000000000000000000000000000000000000000000000000000000600052601260045260246000fd5b6000611f7782611896565b9150611f8283611896565b925082611f9257611f91611f3d565b5b828204905092915050565b6000611fa882611896565b9150611fb383611896565b9250828203905081811115611fcb57611fca611ecc565b5b92915050565b6000819050919050565b6000611ff6611ff1611fec84611fd1565b6118ea565b611896565b9050919050565b61200681611fdb565b82525050565b60006020820190506120216000830184611ffd565b92915050565b7f546865726520616c726561647920697320612068696768657220626964000000600082015250565b600061205d601d83611a3a565b915061206882612027565b602082019050919050565b6000602082019050818103600083015261208c81612050565b9050919050565b60006040820190506120a860008301856119d4565b6120b560208301846119d4565b9392505050565b7f496e73756666696369656e7420616c6c6f77616e636500000000000000000000600082015250565b60006120f2601683611a3a565b91506120fd826120bc565b602082019050919050565b60006020820190508181036000830152612121816120e5565b9050919050565b7f42696420616d6f756e7420746f6f206c6f770000000000000000000000000000600082015250565b600061215e601283611a3a565b915061216982612128565b602082019050919050565b6000602082019050818103600083015261218d81612151565b905091905056fea26469706673582212205b1dd2a91a3de8b4f89e3834334922342ce5abcd1ba471b0a58609324ffcf8dd64736f6c6343000814003341756374696f6e206372656174656420617420616464726573733a20257320616e64206d73672e73656e646572206973202573a2646970667358221220c4ce26eae989a7f7598ba13e12aedbc6f82830ce9622edc7b0ee4b3ce398509564736f6c63430008140033",
  "linkReferences": {},
  "deployedLinkReferences": {}
}